:10000000000C0400000000004022000002187A12D8
:100010002136021D4EFFFF021C62E47889F608F6C5
:10002000788DF608F608F608F67887F608F67885EB
:10003000F608F67893F608F6900018E0FF120D8B9C
:1000400012133A121D4E120B557F0A122057789543
:10005000A60608A60722FF022220AD07ED25E02410
:1000600068F582E43400F583E07F00FEED25E024AE
:1000700069F582E43400F583E02FFFE43EFE2202BE
:100080000906900197EFF0E490019AF0A3F07F0148
:1000900012205790019CEEF0A3EFF0D37896E694EF
:1000A0000018E69400400708E616187001167896C6
:1000B000E61846601690019CE0FEA3E07802CEC3ED
:1000C00013CE13D8F9F0EE90019CF0E49001B3F058
:1000D000900197F0900010E0FF900197E0FEC39F21
:1000E0004003020440900091E0C394F05013EE25C9
:1000F000E02436F9D3E7941419E79400400302038F
:1001000037900197E0FF12004E90019AEEF0A3EFB6
:10011000F0900197E0FF25E02446F9EF25E0245513
:10012000F8E6FE08E6FFD397EE199750030201ADFB
:10013000E025E02446F8C3EF96FDEE1896FC90010A
:100140009AE0C313FEA3E013FFD3ED9FEC9E40693A
:100150009001B3E004F09001B2E0705D900197F07F
:10016000E0FF25E02453F582E43401F583E4F0A3B5
:10017000F0EF25E025E02423F582E43401F5831235
:100180000822000000009001977401F0E0FF25E0D4
:100190002453F582E43401F583E4F0A3F0EF25E085
:1001A00025E02423F582E43401F5831208220000BF
:1001B00000009001B27401F0229001B2E0700302DD
:1001C000029F900197E0FF25E02453F582E434017B
:1001D000F583E475F0011205C6EF25E025E0242340
:1001E000F582E43401F583C083C082E0F8A3E0F92E
:1001F000A3E0FAA3E0FBC000900197E025E02445CE
:10020000F8E6FE08E6FFE4FCFDD000EB2FFFEA3E37
:10021000FEED39FDEC38FCD082D083120816900137
:1002200097E025E02453F582E43401F583E0FEA352
:10023000E0FFD39407EE94004071AB07AA06E4F9FF
:10024000F8900197E025E025E02423F582E43401CD
:10025000F583E0FCA3E0FDA3E0FEA3E0FF12067D32
:10026000900197E0FD25E02455F8A60608A607EDC5
:1002700025E02453F582E43401F583E4F0A3F0EDA6
:1002800025E025E02423F582E43401F583120822D9
:1002900000000000900197E06005E49001B2F07F5B
:1002A0000A1220577895A60608A6079001B2E060CA
:1002B00003020437900197E0FF25E02453F582E420
:1002C0003401F583E0FCA3E04C701FEF25E02445EA
:1002D000F8E6FC08E6FDEF25E02443F582E434016E
:1002E000F583ECF0A3EDF0020363900197E0FD25A8
:1002F000E02443F582E43401F583E0FEA3E0FFED62
:1003000025E02445F8E6FC08E6FD1221DAAC06AD4E
:100310000790019AE0C313FEA3E013FFD3ED9FEC17
:100320009E404C900197E0FF25E02445F8E6FC084C
:10033000E6FDEF25E02443F582E43401F583ECF09B
:10034000A3EDF0900197E0FF25E02453F582E4341B
:1003500001F583E4F0A3F0EF25E025E02423F58206
:10036000E43401F5831208220000000002043790F3
:100370000197E0FF25E02445F8E6FC08E6FDA3EC44
:10038000F0A3EDF07896E618467064EF25E024556A
:10039000F8E6FE08E6FF1221DA90019AE0FAA3E0FF
:1003A000FBC39FEA9E5048900197E0FF25E024455B
:1003B000F8E6F58308E6F582EF25E02455F8E6FC3B
:1003C00008E6FDC39582EC9583500CEAC313FEEB5F
:1003D000132DFFEC3E801190019AE0C313FEA3E0C1
:1003E00013FFC3ED9FFFEC9E900198F0A3EFF090F8
:1003F0000197E025E025E02423F582E43401F5832C
:10040000C083C082E0F8A3E0F9A3E0FAA3E0FB9088
:100410000198E0FEA3E0FFE4FCFDEB2FFFEA3EFEC7
:10042000ED39FDEC38FCD082D0831208169001978C
:10043000E025E02453F582E43401F583E475F0010E
:100440001205C6900197E004F00200C8E49001B3E1
:10045000F0900197F0900010E0FF900197E0FEC34C
:100460009F502EEE25E02453F582E43401F583E01D
:10047000FEA3E0FF90019CE0FCA3E0FDD3EF9DEE26
:100480009C40069001B3E004F0900197E004F080F6
:10049000C49001B3E07003020518E4900197F09056
:1004A0000010E0FF900197E0FEC39F5077EE25E03B
:1004B0002453F582E43401F583E0FEA3E0FF4E60AF
:1004C0005AAB07AA06E4F9F8900197E025E025E089
:1004D0002423F582E43401F583E0FCA3E0FDA3E0EE
:1004E000FEA3E0FF12067D900197E0FD25E0245574
:1004F000F8A60608A607ED25E02453F582E43401AA
:10050000F583E4F0A3F0ED25E025E02423F582E473
:100510003401F58312082200000000900197E004E6
:10052000F002049322BB010689828A83E0225002F2
:10053000E722BBFE02E32289828A83E49322BB0185
:100540000CE58229F582E5833AF583E0225006E93D
:100550002582F8E622BBFE06E92582F8E222E58242
:1005600029F582E5833AF583E49322EF8DF0A4A880
:10057000F0CF8CF0A428CE8DF0A42EFE22BC000B70
:10058000BE0029EF8DF084FFADF022E4CCF875F0C9
:1005900008EF2FFFEE33FEEC33FCEE9DEC984005A8
:1005A000FCEE9DFE0FD5F0E9E4CEFD22EDF8F5F06E
:1005B000EE8420D21CFEADF075F008EF2FFFED3376
:1005C000FD4007985006D5F0F222C398FD0FD5F0F4
:1005D000EA22C5F0F8A3E028F0C5F0F8E58215821C
:1005E00070021583E038F022A3F8E0C5F025F0F0A2
:1005F000E582158270021583E0C838F0E822E88FA2
:10060000F0A4CC8BF0A42CFCE98EF0A42CFC8AF096
:10061000EDA42CFCEA8EF0A4CDA8F08BF0A42DCC98
:100620003825F0FDE98FF0A42CCD35F0FCEB8EF0F1
:10063000A4FEA9F0EB8FF0A4CFC5F02ECD39FEE4D7
:100640003CFCEAA42DCE35F0FDE43CFC2275F0081C
:10065000758200EF2FFFEE33FECD33CDCC33CCC50A
:100660008233C5829BED9AEC99E58298400CF58225
:10067000EE9BFEED9AFDEC99FC0FD5F0D6E4CEFB97
:10068000E4CDFAE4CCF9A88222B800C1B90059BA85
:10069000002DEC8BF084CFCECDFCE5F0CBF97818B3
:1006A000EF2FFFEE33FEED33FDEC33FCEB33FB10AD
:1006B000D703994004EB99FB0FD8E5E4F9FA2278C7
:1006C00018EF2FFFEE33FEED33FDEC33FCC933C9D9
:1006D00010D7059BE99A4007EC9BFCE99AF90FD8E3
:1006E000E0E4C9FAE4CCFB2275F010EF2FFFEE3303
:1006F000FEED33FDCC33CCC833C810D7079BEC9A42
:10070000E899400AED9BFDEC9AFCE899F80FD5F0CA
:10071000DAE4CDFBE4CCFAE4C8F922EB9FF5F0EA89
:100720009E42F0E99D42F0E89C45F022E8600FEC23
:10073000C313FCED13FDEE13FEEF13FFD8F122BB44
:10074000010789828A830208775005E9F80207C108
:10075000BBFE05E9F802088389828A8302088FBB01
:10076000010DE58229F582E5833AF5830208775089
:1007700007E92582F80207C1BBFE07E92582F802D6
:100780000883E58229F582E5833AF58302088FBB69
:10079000010789828A830208165005E9F802080ACF
:1007A000BBFE05E9F80208C822BB010DE58229F568
:1007B00082E5833AF5830208165007E92582F8029C
:1007C000080ABBFE07E92582F80208C822E6FC08F1
:1007D000E6FD08E6FE08E6FF22E6FB08E6F908E685
:1007E000FA08E6CBF822BB010DE58229F582E58304
:1007F0003AF58302089F5007E92582F80207CDBB2E
:10080000FE07E92582F80208ABE58229F582E58337
:100810003AF5830208B8ECF608EDF608EEF608EFB4
:10082000F622ECF0A3EDF0A3EEF0A3EFF022A88205
:100830008583F0D083D08212083912083912083922
:10084000120839E473E493A3C583C5F0C583C8C512
:1008500082C8F0A3C583C5F0C583C8C582C822BBC2
:10086000010DE58229F582E5833AF58302082250DD
:1008700007E92582F80208D4BBFE07E92582F802C1
:1008800008ED22E0FCA3E0FDA3E0FEA3E0FF22E2EE
:10089000FC08E2FD08E2FE08E2FF22E493FC74019A
:1008A00093FD740293FE740393FF22E0F8A3E0F932
:1008B000A3E0FAA3E0FB22E2FB08E2F908E2FA086F
:1008C000E2CBF822E493F8740193F9740293FA747A
:1008D0000393FB22ECF208EDF208EEF208EFF222AD
:1008E000D083D082E493F608740193F608740293DF
:1008F000F608740393F6740473D083D082E493F201
:1009000008740193F208740293F208740393F2746A
:100910000473C0E0C0F0C083C082C0D075D008208E
:10092000F903020B3E30FD03020B3E20FB03020BDA
:100930003E20FC030209B178B9E6F5FC53A1BFC221
:10094000FF751001AB12AA13A914851082758300DC
:10095000120532F511C2FF43F92078BC76130876F0
:100960008820FF1220FA0F78BDE61618700116785D
:10097000BDE6184670EB30FA03020B3E8511FC050C
:1009800010AB12AA13A914851082758300120532C8
:10099000F511C2FF43F92078BC761308768820FF52
:1009A0001220FA0F78BDE6161870011678BDE61809
:1009B0004670EB78BDE6184670BC020B3E53A1BFF3
:1009C000C2FF751000C2FF43F92078BC7613087689
:1009D0008820FF1220FA0F78BDE6161870011678ED
:1009E000BDE6184670EB20FB4085FC1130FA03028F
:1009F0000B3E74982510F8A6110510C2FF43F9208C
:100A000078BC761308768820FF1220FA0F78BDE6AE
:100A1000161870011678BDE6184670EB85FC117843
:100A2000BDE6184670C6020B3E85FC107897A610EE
:100A3000AB12AA13A914AF1005108F827583001290
:100A40000532F511C2FF43F92078BC761308768889
:100A500020FF1220FA0F78BDE6161870011678BD37
:100A6000E6184670EB20FC03020B117897E6FF5462
:100A7000F06480706B74002FF582E43400F583E03D
:100A800075F003A424CFF582E43420F583E493F9D0
:100A9000740193FA740293900181C9F0A3EAF0A360
:100AA000E9F030FA03020B3E900181E0FBA3E4750C
:100AB000F0011205DCA9F0FA120519F5FCC2FF439A
:100AC000F92078BC761308768820FFD620FAD378F0
:100AD000BDE6161870011678BDE6184670EB80C2A8
:100AE00020FA678511FCAB12AA13A914AF100510E8
:100AF0008F82758300120532F511C2FF43F9207809
:100B0000BC761308768820FFD720FAD478BDE61685
:100B10001870011678BDE6184670EB80C37897E62A
:100B2000062498F8A6FCC2FF43F92078BC76130887
:100B3000768820FF1220FA0F78BDE616187001168D
:100B400078BDE6184670EB30FAD3C2FF43F9204374
:100B5000A14078A47601D0D0D082D083D0F0D0E06C
:100B600032E4900197F0900010E0FF900197E0C30D
:100B70009F505EE0FB25E025E02423F582E434016C
:100B8000F58312082200000000EB25E02443F582E3
:100B9000E43401F583E4F0A3F0900197E0FF25E051
:100BA0002453F582E43401F583E4F0A3F0900120AE
:100BB000E0FBA3E0FAA3E0F975F004EFA4F5828569
:100BC000F08312085300000000900197E004F080C9
:100BD0009512196BE4900197F0900010E0FF9001DE
:100BE00097E0FEC39F5069EE25E025E02423F582BF
:100BF000E43401F583C083C082E0FCA3E0FDA3E000
:100C0000FEA3E0FF900120E0FBA3E0FAA3E0F9904F
:100C10000197E075F004A4F58285F0831207DAEFFE
:100C20002BFFEE3AFEED39FDEC38FCD082D083127A
:100C30000816900197E025E02453F582E43401F58D
:100C400083E475F0011205C6900197E004F08089F5
:100C5000C3900154E09405900153E09400500302C6
:100C60000BC5E4900197F0900010E0FF900197E031
:100C7000FEC39F4003020D84EE25E02453F582E479
:100C80003401F583E0FEA3E0FBAA06E4F9F8900145
:100C900097E025E025E02423F582E43401F583E0A4
:100CA000FCA3E0FDA3E0FEA3E0FF12067D90019807
:100CB000120816E47F787E69FDFC900198E0F8A3A5
:100CC000E0F9A3E0FAA3E0FBD312070F403E900146
:100CD00098E0FCA3E0FDA3E0FEA3E02458FFEE347F
:100CE0009EFEED34FFFDEC34FFFC900197E0FB2508
:100CF000E025E02400F582E43401F583120816EBC8
:100D000025E02455F876610876A8802E900197E0BA
:100D1000FB25E025E02400F582E43401F583120888
:100D20002200000000900198A3A3E0FEA3E0FFEBE7
:100D300025E02455F8A60608A607900197E0FF25B0
:100D4000E02425F8E4F608F6EF25E02455F8E6FE61
:100D500008E6FFE0FD25E0246DF8A60608A607EDED
:100D600025E025E02423F582E43401F583120822EE
:100D700000000000900197E025E02453F582E43460
:100D800001F583E4F0A3F0900197E004F0020C5B1E
:100D9000900097E004F022AB07E4900197F0A312D3
:100DA00008220000000090019CE4F0A37464F0A30A
:100DB000E4F0A37464F0E4A3F0900019E0F5C290AD
:100DC000FB04EBF09001A37403F0A374BBF0E4F513
:100DD000C375BB2775B310F5AAF5BEF5BFF5BC7595
:100DE000BD2175E61890FB05743BF0E490FB09F01B
:100DF00090FB0A74F0F090FB0B743CF090FB0CF04D
:100E000090FB0D7401F0E49001A1F0900010E0FF60
:100E10009001A1E0C39F502E900120E0FBA3E0FAD7
:100E2000A3E0F99001A1E0FF75F004A4F58285F03C
:100E3000831208530000000074652FF87646900175
:100E4000A1E004F080C5E4F5BC9001A1F090FB06A0
:100E500074FFF090FB07F090FB08F0E49001A2F023
:100E6000900010E0FF9001A2E0C39F5036121B409B
:100E700090FB00E0FCA3E0FDA3E0FEA3E0FF9001F7
:100E800020E0FBA3E0FAA3E0F99001A2E075F004F2
:100E9000A4F58285F08312079DD2D89001A2E004C8
:100EA000F080BDE490FB06F090FB07F090FB08F0AB
:100EB0009001A2F0900010E0FF9001A2E0C39F50CB
:100EC00057121B40900120E0FBA3E0FAA3E0F99049
:100ED00001A2E075F004A4F582E92582F9EA35F073
:100EE000FAC003C002C00112073390FB00E0F8A370
:100EF000E0F9A3E0FAA3E0FBC3EF9BFFEE9AFEED5F
:100F000099FDEC98FCD001D002D003120783D2D80F
:100F10009001A2E004F0809CE4900197F09001A27F
:100F2000F0900010E0FF9001A2E0C39F505A9001A2
:100F300020E0FBA3E0FAA3E0F99001A2E075F00441
:100F4000A4F58285F0831207539001A2E0FD25E00D
:100F50002415F8A60608A607ED25E02415F8E6FEF8
:100F600008E6FFD39001A4E09F9001A3E09E400A11
:100F70009001A2E02465F8068006900197E004F055
:100F80009001A2E004F08099900010E0FF9001979A
:100F9000E0C39F500F9001A1E004F0E0C3943250F1
:100FA00003020E4122E49001A0F0A3F0A3F0A3F00D
:100FB0007815E6FE08E6FF90019CEEF0A3EFF0A3A3
:100FC000EEF0A3EFF0E4FFF9FE900010E0FDEEC3B9
:100FD0009D5055EE25E02415F8E6FC08E6FDC3908B
:100FE000019DE09D90019CE09C5011AF06EE25E034
:100FF0002415F8E6FD08E6CDF0A3EDF0EE25E0249B
:1010000015F8E6FC08E6FDD390019FE09D90019E57
:10101000E09C4011A906EE25E02415F8E6FD08E65F
:10102000CDF0A3EDF00E80A1900098EFF0A3E9F0D1
:10103000E490019CF0A3F0FE900010E0FDEEC39D53
:10104000507AEE25E02415F8E6FC08E6FDD394235B
:10105000EC940040069001A3E004F0D3ED942DEC55
:10106000940040069001A0E004F0D3ED9437EC9496
:101070000040069001A1E004F0D3ED9441EC94000F
:1010800040069001A2E004F0900098E06E6029EE26
:1010900025E02415F8E6FC08E6FDC390019DE09DDF
:1010A00090019CE09C5011AF06EE25E02415F8E677
:1010B000FD08E6CDF0A3EDF00E02102C90009DEFA0
:1010C000F09001A3E090009FF09001A0E090009AC2
:1010D000F09001A1E090009BF09001A2E090009CB4
:1010E000F0224101B4FF4801A500010204081020CC
:1010F00040500186017200F0012C012C012C012CC2
:10110000012C012C48017701020408102040804185
:10111000017F00610000000D110BFFFFFFFFFFFFCB
:10112000FFFFFFFFFFFFFF020838800000003218BA
:101130000C060000280A0402000000000000000461
:1011400001FFFF000000AA000000000000000000F6
:10115000646464646464646400000000000000006F
:10116000000000000000000000000000000000007F
:10117000000000000000000000000000000000016E
:101180007200F0012C012C012C012C012C012C01EE
:101190002C012C012C012C00010203040506070878
:1011A000090A0B0C0D0E0F01FFFF0000800000006C
:1011B000000000000000000000000000000000002F
:1011C000000000000000000000000000000000001F
:1011D000000000000000000000000000000000000F
:1011E00000000000000000000000000000000000FF
:1011F00000000000000000000000000000000000EF
:1012000000000000000000000000000000000000DE
:10121000000000000000FF00E4900196F090001034
:10122000E0FF900196E0C39F400302133790012036
:10123000E0FBA3E0FAA3E0F9900196E075F004A4C6
:10124000F58285F083120753EC4D4E4F7003021365
:101250001E900196E025E025E02400F582E43401AB
:10126000F583E0F8A3E0F9A3E0FAA3E0FBD31207CB
:101270000F40037F0322900120E0FBA3E0FAA3E0EC
:10128000F9900196E075F004A4F58285F0831207C9
:1012900053900196E025E025E02400F582E4340136
:1012A000F583E0F8A3E0F9A3E0FAA3E0FBC3EF9B2A
:1012B000FFEE9AFEED99FDEC98FC78C212080AE464
:1012C0007FFF7EFFFDFC78C21207CDC312070F40DF
:1012D000037F032278C21207C1900196E0FD25E04A
:1012E0002445F8A60608A607ED25E02456F9ED25C5
:1012F000E02445F8E6FE08E6FFD397EE1997401B79
:10130000E025E02456F8C3EF96FFEE1896FEE025A0
:10131000E02425F8A60608A607801F900196E02580
:10132000E02425F8E4F608F68010900196E025E028
:101330002425F8E4F608F67F0322900196E004F0F5
:101340000212117F072275E61875CF1F75C301754C
:10135000BB3875B3809001977407F0900197E0FF58
:101360007021047E00A807088005C333CE33CED891
:10137000F9FF90FB0AE0FDEF5D7008900197E01423
:10138000F080D8900197E0FF7401A807088002C39D
:1013900033D8FC90FB0AF090FB0B7401F090FB0C2F
:1013A000F090019812082200000000E4900197F0EC
:1013B000900010E0FF900197E0FEC39F5052740030
:1013C0002EF582E43400F583E0FFF4603B121B54F9
:1013D00090FB00E0FCA3E0FDA3E0FEA3E0FF900192
:1013E00098E0F8A3E0F9A3E0FAA3E0FBC312070F2B
:1013F000501490FB00E0FCA3E0FDA3E0FEA3E0FF9F
:10140000900198120816D2D8900197E004F080A0BD
:10141000900198E0FCA3E0FDA3E0FEA3E0FFE47BE5
:1014200002FAF9F81205F290019812081690019844
:10143000E0FCA3E0FDA3E0FEA3E0FF78101207208C
:10144000900020EFF0900198E0FCA3E0FDA3E0FE07
:10145000A3E0FF7808120720900021EFF090019898
:10146000A3A3A3E0900022F022E4FF12004EE4FCCC
:10147000FDC004C005C006C0077825E6FE08E6FFEB
:10148000E47B64FAF9F81205F2D003D002D001D05F
:101490000012067D900198EEF0A3EFF09001977492
:1014A00001F0900010E0FF900197E0F9C39F505EBB
:1014B000AF0112004EE4FCFDC004C005C006C00729
:1014C000900197E025E02425F8E6FE08E6FFE47B9E
:1014D00064FAF9F81205F2D003D002D001D000125C
:1014E000067D90019AEEF0A3EFF0D3900199E09F72
:1014F000900198E09E400F90019AE0FFA3E09001D8
:1015000098CFF0A3EFF0900197E004F08094E4907E
:101510000197F0900010E0FF900197E0F9C39F5011
:1015200068AF0112004EE4FCFDC004C005C006C057
:1015300007900197E025E02425F8E6FE08E6FFE4A1
:101540007B64FAF9F81205F2D003D002D001D00082
:1015500012067D90019AEEF0A3EFF0900198E0FC66
:10156000A3E0FDC3EF9DFDEE9CFC900197E0FB2501
:10157000E02415F8A60408A605EB25E02435F8A616
:101580000608A607E004F0808A229001967408F00D
:1015900012145D121BDABF010A900092E0FF1200E4
:1015A00076800302167E7F02122057D3788EE69F44
:1015B00018E69E400280157887E6FE08E6FFD39481
:1015C00000EE94004014EF64014E7006121FFD02FD
:1015D00016797888E61618700116900092E090014E
:1015E000B4F02410605414605F24F27073786DE6D8
:1015F000FE08E6FF08E6FC08E6FD1221DAD3EF94C8
:1016000064EE9400400A789406E618700906800695
:10161000E47893F608F67F07122057D37894E69F74
:1016200018E69E40069001967403F0121FFDE478C0
:1016300085F608F608F608F68050121FFD7888E651
:10164000184670467F06800C121FFD7888E6184603
:1016500070387F041220577887A60608A607802ACC
:10166000E47887F608F69001B4E0FF121E08788649
:1016700006E6187001067F05122057D37886E69F8C
:1016800018E69E400512000E8000900196E0FF22B1
:10169000E4900196F053D1DF53D2EF53D3FB43D5FF
:1016A0002043E12043DD1043E21043E50443E3041B
:1016B000900002E0FF121EAD900019E0F5C290000C
:1016C00018E090FB04F0E4F5C375BB0B75B3B8F5F7
:1016D000AAF5BEF5BF75E618A3743BF0E490FB09CC
:1016E000F0A37480F0A3F0A3F0A37401F0E4F5BCC0
:1016F00075BD32900002E0FF121B5490FB00A3A3C3
:10170000E0FEA3E0FF900184EEF0A3EFF064B87078
:1017100003EE640B60037F0222900002E0FF121EC2
:10172000ADE4FFFE3085010F0EEEB40AF7EFD3945F
:10173000084007900196E02404F0E4FFFE30940195
:101740000F0EEEB40AF7EFD394084007900196E02D
:101750002402F0E4FFFE30A2010F0EEEB40AF7EF10
:10176000D394084006900196E004F0900196E0FEC4
:10177000B4070B90FFFBE493B476037F0122EE25C0
:10178000E02401F582E43422F583740193FF2212F0
:1017900020A71221F09000907401F012207F121EF9
:1017A0005B1221F0121F6643D40843DC0853E4F7B0
:1017B000D2B390009E74FFF0121FCE43D40343E4D3
:1017C0000343B003900090E024FD6031146039249D
:1017D000FE604E146055146065240770671221C3C3
:1017E00012207F121DB212000312000E121FCE7FB4
:1017F0000A1220577895A60608A6078041121DB246
:1018000012000312000E80369001AFE004F0700663
:101810009001AEE004F012196B9000907406F08015
:101820002312120C900090EFF0801912157E900098
:1018300090EFF078A5E678B9F6121CDC80069000EF
:10184000907404F09000FBE06029E478A4F6C2B341
:10185000F0900175F0A3F0900176E004F07006902E
:101860000175E004F0900175E07004A3E06450702D
:10187000E6D2B378A4E6600678A5E64408F6D2D8A6
:10188000121EF40217B843F580C2DC0020DCF7908A
:10189000FF03E493FFF4FE90FF02E493FDB506041A
:1018A0008D9A8003759A4C90FF05E493FFF4FE90A7
:1018B000FF04E493FDB506048D84800375840490D1
:1018C000FFFEE493FFF4FE90FFFFE493FDB50604F2
:1018D0008D8F8003758F2543C60C9000007F007E9E
:1018E00004E4F0A3DFFCDEFA78FFE4F6D8FD7581AE
:1018F000C5021926020000021783E493A3F8E493BB
:10190000A34003F68001F208DFF48029E493A3F8F2
:101910005407240CC8C333C4540F4420C883400464
:10192000F456800146F6DFE4800B01020408102023
:1019300040809010D6E47E019360BCA3FF543F30FA
:10194000E509541FFEE493A360010ECF54C025E0C7
:1019500060A840B8E493A3FAE493A3F8E493A3C87F
:10196000C582C8CAC583CAF0A3C8C582C8CAC58310
:10197000CADFE9DEE780BE90001AE090019EF0E445
:1019800090019CF0900010E0FF90019CE0FEC39F4E
:101990005024900120E0FBA3E0FAA3E0F975F004E5
:1019A000EEA4F58285F08312085300000000900138
:1019B0009CE004F080CE75E61875CF1F90FB06748E
:1019C000FFF090FB07F090FB08F0900018E090FB10
:1019D00004F0900020E0F5C3A3E0F5BBA3E0F5B36D
:1019E000E4F5BC90019CF090019EE0FF90019CE02A
:1019F000C39F5069E4A3F0900010E0FF90019DE0C8
:101A0000C39F5050121B40900120E0FBA3E0FAA3BB
:101A1000E0F990019DE075F004A4F582E92582F9D2
:101A2000EA35F0FAC002C00112073390FB00E0F87B
:101A3000A3E0F9A3E0FAA3E02FFFEA3EFEE93DFDB3
:101A4000E83CFCD001D002120783D2D890019DE07F
:101A500004F080A390019CE004F00219DB75E61805
:101A600075CF1F22120F99900010E0FF900091E0B7
:101A7000FEC39F5013EE25E02436F9C3E7943C19CA
:101A8000E794004003E0FF22900098E0FE25E02468
:101A900016F9D3E7943C19E794004009900091E0CF
:101AA000FFF46004227FFF22D3796EE778709619E5
:101AB000E718964007E490019BF0800690019B7424
:101AC00001F090019BE06E7040786DE6FE08E6FF45
:101AD00008E6FC08E6FD1221DA900199EEF0A3EF8A
:101AE000F07845E6FE08E6FF08E6FC08E6FD122170
:101AF000DA90019AE02432FD900199E03400FCC3B1
:101B0000EF9DEE9C50407FFF22900098E025E0245E
:101B100045F8E6FC08E6FD90019BE025E02446F947
:101B2000D3E79D19E79C40037FFF22900098E025B2
:101B3000E0246EF8E62432FF18E436FEC3ED9FEC95
:101B40009E50037FFF22900098E0FF22E0FF246573
:101B5000F8E6F5BD74002FF582E43400F583E0FF6C
:101B6000EF131313541FFEEF540790217493FDEFEE
:101B7000D3941740037F0022EE14600F14601424E6
:101B8000027018ED42E1ED42D98013ED42E2ED42E0
:101B9000DA800BED42E3ED42DB80037F0022EF446D
:101BA00020F5E675C70D00000000000043C101E507
:101BB000C130E1FB53C1FD75E618EE14600F1460EF
:101BC0001424027018EDF452E152D98013EDF4524E
:101BD000E252DA800BEDF452E352DB80037F002205
:101BE000E4F5C77F0122121A58900197EFF0F470C4
:101BF0006DA3F0900010E0FF900198E0FEC39F50AD
:101C00005DEE25E0246DF8E6FE08E6FFE4FCFD78D5
:101C1000BE12080AE47F1FFEFDFC78BE1207CD123B
:101C200005F2C004A905AA06AB07900198E025E0DB
:101C30002445F8E6FE08E6FFE4FCFDD000EB2FFFAC
:101C4000EA3EFEED39FDEC38FC7805120720E02570
:101C5000E0246DF8A60608A607E004F08095900140
:101C600097E0FF121F9CEF7002FF227F0122C0E06D
:101C7000C0F0C083C082C0D075D000C000C004C016
:101C800005C006C007C28D758CFD758A869001B6A9
:101C9000E004F070069001B5E004F09001B5E0FEBC
:101CA000A3E0FF7C077DD0120571ED4C70259001FB
:101CB000AEE0FEA3E0FFD3940AEE9400400890014A
:101CC000B0EEF0A3EFF09001AEE4F0A3F09001B518
:101CD000F0A3F0D007D006D005D004D000D0D0D0EB
:101CE00082D083D0F0D0E032E4900196F09001965B
:101CF000E0FF25E02435F8E6FC08E6FDEF75F00886
:101D0000A424ABF8A60408A605E0FF25E02425F8E6
:101D1000E6FC08E6FDEF75F008A424ADF8A604087B
:101D2000A605900120E0FBA3E0FAA3E0F99001965C
:101D3000E075F004A4F58285F08312075378081249
:101D40000720900196E075F008A424AFF8A60608D5
:101D5000A607E004F0E0B4029422900019E0F5C276
:101D6000900018E090FB04F0900020E0F5C3A3E0A1
:101D7000F5BBA3E0F5B3E4F5AA900014E0F5BEA32B
:101D8000E0F5BFA3E0F5BCA3E0F5BD75E61890FB58
:101D900005743BF090FB0674FFF090FB07F090FB9E
:101DA00008F0E490FB09F090FB0A74F0F090FB0B54
:101DB000743CF090FB0CF090FB0D7401F02290004D
:101DC0009174FFF0A3F0E4A3F07885F608F6788923
:101DD000F608F608F608F608F608F608F608F678A3
:101DE00087F608F67893F608F6FF900010E0FEEF0D
:101DF000C39E501F900120E0FBA3E0FAA3E0F97519
:101E0000F004EFA4F58285F083120853000000006F
:101E10000F80D722E4FE900010E0FDEFC39D501E1E
:101E2000900091E06F6017E47885F608F674A52FAE
:101E3000F582E43401F583E0FE900091EFF090002C
:101E400091E0FF90009EE06F6014EF146003047057
:101E50000D9000FBE0700704F0EE0478A5F690000A
:101E600091E090009EF022E478A5F6087604121620
:101E70008478A7A607E408F6FFEF75F008A424A964
:101E8000F8760008763CEF75F008A424ABF8E4F689
:101E900008F6EF75F008A424ADF8E4F608F6EF753F
:101EA000F008A424AFF8E4F608F60FEFB402CA7500
:101EB00012007513007514A522EF131313541FFE9F
:101EC000EF54072477F582E43401F583E0FFEE1444
:101ED000601214601A24027021EF42E1EF42D9EF40
:101EE00042D18019EF42E2EF42DAEF42D2800EEFA8
:101EF00042E3EF42DBEF42D380037F00227F0122E7
:101F00007898E6FF6032E4F6EF24E0600C24A060ED
:101F10000D247070237F018002E4FF0221911220C2
:101F20002B1221AB1220F353DCF753E4F753D4F711
:101F3000D2B39000907401F022E4FEEE75F003A499
:101F4000247CF582E43421F583E493FDF4601FEFF3
:101F5000B50516EE75F003A4247DF582E43421F571
:101F600083E493FE740193FF220EEEB407CDE4FEEA
:101F7000FF227E007FE0E4FDED25E02416F582E4FB
:101F80003421F583E493F4601EED25E02417F582F7
:101F9000E43421F583E493FCEF2DF582E43EF583F0
:101FA000ECF00DEDB410D12290001FE0FE900092F5
:101FB000E06F6005EFF0E4A3F0900092E0B4FF0260
:101FC000E4FEAF06900093E004F0C39F50037F004F
:101FD000229000937404F07F012243B14053FAF73A
:101FE00090FFF8E493B4F80B43FA0443F90243F981
:101FF00001800343FA0443F90243F90153F9BF7521
:10200000FB4053FAFD43A14022E47885F608F690A0
:10201000009174FFF090009EE0FFF46013EF1460F5
:102020000304700C9000FB7401F078A5E64408F6F8
:1020300090009E74FFF022E4F5D9F5D1F5E1F5D5D5
:102040007580FFF5DAF5D2F5E2F5DD7590FFF5DB89
:10205000F5D3F5E3F5E575A0FF43DC0843E4085349
:10206000D4F7229000E0EFB4FF057F017E0022E567
:10207000822FF582E43583F583E0FB9001B0E0FC2C
:10208000A3E0FDAF037E0012055F22E4900097F00D
:102090009001AEF0A3F09001B0F0A37420F0900096
:1020A0002A74FFF09001207401F0A37400F0A3746F
:1020B000A0F02243850343910153E12053D52053DF
:1020C000802053E23C53DD3C53903C53E30353E503
:1020D0000353A00353E40B53B00B22000045000050
:1020E0006D00005500005D00001500001D0000257A
:1020F00000002D010091000065010184000067AF20
:10210000D653C7FBE4F5D6C2D953A1EF539AF05387
:1021100091FE5387FC43870200004391018FD60252
:10212000221100020101020103010401051E06053E
:102130000702080A09020A020B280C3C0D1E0E01B8
:10214000FF01E4FD900010E0FFEDC39F501274000A
:102150002DF582E43400F583E0FF121EAD0D80E41E
:1021600022438901C28DD2A953B7FD53B8FDE49033
:1021700001B5F0A3F0758CFD758A86D28CD2AF22A2
:102180000102040810204080010521060995020C77
:10219000F10C0F411411A8041662FF00FFEFB40107
:1021A00011C293C2927F0A1220577895A60608A6FC
:1021B0000722D293D2922243DC0843E40853D4F797
:1021C000D2B353B2FDE4F5BA5391DF43A1022275B5
:1021D000C60CE4F5C7F5C175CE4275D606122211BC
:1021E000122155D2AF22D3EF9DEE9C4007EF9DFF09
:1021F000EE9CFE22C3ED9FFFEC9EFE2253E2F353C2
:10220000D2F375AD0C53DAF3D293D29222000000D0
:1022100000000100000000000000000000D2DFC24A
:10222000DA538E1F438EA0D2D8D2D92253B2DF32D6
:10223000FFFFFFFFFFFFFFFFFFFFFFFFFFFFFFFFAE
:0C224000FFFFFFFFFFFFFFFFFFFFFFFF9E
:00000001FF
