:10000000000C0700000000000022000002187E0023
:1000100005000400030002021C3CE47889F608F69F
:10002000788DF608F608F608F67887F608F67885EB
:10003000F608F67893F608F6900018E0FF120D67C0
:10004000120F4A121D28120B317F0A1220317895A7
:10005000A60608A60722FF0221F0AD07ED25E02441
:1000600068F582E43400F583E07F00FEED25E024AE
:1000700069F582E43400F583E02FFFE43EFE2202BE
:1000800008E2900197EFF0E490019AF0A3F07F016D
:1000900012203190019CEEF0A3EFF0D37896E69415
:1000A0000018E69400400708E616187001167896C6
:1000B000E61846601690019CE0FEA3E07802CEC3ED
:1000C00013CE13D8F9F0EE90019CF0E49001B2F059
:1000D000900197F0900010E0FF900197E0FEC39F21
:1000E0004003020440900091E0C394F05013EE25C9
:1000F000E02436F9D3E7941419E79400400302038F
:1001000037900197E0FF12004E90019AEEF0A3EFB6
:10011000F0900197E0FF25E02446F9EF25E0245513
:10012000F8E6FE08E6FFD397EE199750030201ADFB
:10013000E025E02446F8C3EF96FDEE1896FC90010A
:100140009AE0C313FEA3E013FFD3ED9FEC9E40693A
:100150009001B2E004F09001B1E0705D900197F081
:10016000E0FF25E02453F582E43401F583E4F0A3B5
:10017000F0EF25E025E02423F582E43401F5831235
:1001800007FE000000009001977401F0E0FF25E0F9
:100190002453F582E43401F583E4F0A3F0EF25E085
:1001A00025E02423F582E43401F5831207FE0000E4
:1001B00000009001B17401F0229001B1E0700302DF
:1001C000029F900197E0FF25E02453F582E434017B
:1001D000F583E475F0011205C6EF25E025E0242340
:1001E000F582E43401F583C083C082E0F8A3E0F92E
:1001F000A3E0FAA3E0FBC000900197E025E02445CE
:10020000F8E6FE08E6FFE4FCFDD000EB2FFFEA3E37
:10021000FEED39FDEC38FCD082D0831207F290015C
:1002200097E025E02453F582E43401F583E0FEA352
:10023000E0FFD39407EE94004071AB07AA06E4F9FF
:10024000F8900197E025E025E02423F582E43401CD
:10025000F583E0FCA3E0FDA3E0FEA3E0FF12067D32
:10026000900197E0FD25E02455F8A60608A607EDC5
:1002700025E02453F582E43401F583E4F0A3F0EDA6
:1002800025E025E02423F582E43401F5831207FEFE
:1002900000000000900197E06005E49001B1F07F5C
:1002A0000A1220317895A60608A6079001B1E060F1
:1002B00003020437900197E0FF25E02453F582E420
:1002C0003401F583E0FCA3E04C701FEF25E02445EA
:1002D000F8E6FC08E6FDEF25E02443F582E434016E
:1002E000F583ECF0A3EDF0020363900197E0FD25A8
:1002F000E02443F582E43401F583E0FEA3E0FFED62
:1003000025E02445F8E6FC08E6FD1221B4AC06AD74
:100310000790019AE0C313FEA3E013FFD3ED9FEC17
:100320009E404C900197E0FF25E02445F8E6FC084C
:10033000E6FDEF25E02443F582E43401F583ECF09B
:10034000A3EDF0900197E0FF25E02453F582E4341B
:1003500001F583E4F0A3F0EF25E025E02423F58206
:10036000E43401F5831207FE000000000204379018
:100370000197E0FF25E02445F8E6FC08E6FDA3EC44
:10038000F0A3EDF07896E618467064EF25E024556A
:10039000F8E6FE08E6FF1221B490019AE0FAA3E025
:1003A000FBC39FEA9E5048900197E0FF25E024455B
:1003B000F8E6F58308E6F582EF25E02455F8E6FC3B
:1003C00008E6FDC39582EC9583500CEAC313FEEB5F
:1003D000132DFFEC3E801190019AE0C313FEA3E0C1
:1003E00013FFC3ED9FFFEC9E900198F0A3EFF090F8
:1003F0000197E025E025E02423F582E43401F5832C
:10040000C083C082E0F8A3E0F9A3E0FAA3E0FB9088
:100410000198E0FEA3E0FFE4FCFDEB2FFFEA3EFEC7
:10042000ED39FDEC38FCD082D0831207F2900197B1
:10043000E025E02453F582E43401F583E475F0010E
:100440001205C6900197E004F00200C8E49001B2E2
:10045000F0900197F0900010E0FF900197E0FEC34C
:100460009F502EEE25E02453F582E43401F583E01D
:10047000FEA3E0FF90019CE0FCA3E0FDD3EF9DEE26
:100480009C40069001B2E004F0900197E004F080F7
:10049000C49001B2E07003020518E4900197F09057
:1004A0000010E0FF900197E0FEC39F5077EE25E03B
:1004B0002453F582E43401F583E0FEA3E0FF4E60AF
:1004C0005AAB07AA06E4F9F8900197E025E025E089
:1004D0002423F582E43401F583E0FCA3E0FDA3E0EE
:1004E000FEA3E0FF12067D900197E0FD25E0245574
:1004F000F8A60608A607ED25E02453F582E43401AA
:10050000F583E4F0A3F0ED25E025E02423F582E473
:100510003401F5831207FE00000000900197E0040B
:10052000F002049322BB010689828A83E0225002F2
:10053000E722BBFE02E32289828A83E49322BB0185
:100540000CE58229F582E5833AF583E0225006E93D
:100550002582F8E622BBFE06E92582F8E222E58242
:1005600029F582E5833AF583E49322EF8DF0A4A880
:10057000F0CF8CF0A428CE8DF0A42EFE22BC000B70
:10058000BE0029EF8DF084FFADF022E4CCF875F0C9
:1005900008EF2FFFEE33FEEC33FCEE9DEC984005A8
:1005A000FCEE9DFE0FD5F0E9E4CEFD22EDF8F5F06E
:1005B000EE8420D21CFEADF075F008EF2FFFED3376
:1005C000FD4007985006D5F0F222C398FD0FD5F0F4
:1005D000EA22C5F0F8A3E028F0C5F0F8E58215821C
:1005E00070021583E038F022A3F8E0C5F025F0F0A2
:1005F000E582158270021583E0C838F0E822E88FA2
:10060000F0A4CC8BF0A42CFCE98EF0A42CFC8AF096
:10061000EDA42CFCEA8EF0A4CDA8F08BF0A42DCC98
:100620003825F0FDE98FF0A42CCD35F0FCEB8EF0F1
:10063000A4FEA9F0EB8FF0A4CFC5F02ECD39FEE4D7
:100640003CFCEAA42DCE35F0FDE43CFC2275F0081C
:10065000758200EF2FFFEE33FECD33CDCC33CCC50A
:100660008233C5829BED9AEC99E58298400CF58225
:10067000EE9BFEED9AFDEC99FC0FD5F0D6E4CEFB97
:10068000E4CDFAE4CCF9A88222B800C1B90059BA85
:10069000002DEC8BF084CFCECDFCE5F0CBF97818B3
:1006A000EF2FFFEE33FEED33FDEC33FCEB33FB10AD
:1006B000D703994004EB99FB0FD8E5E4F9FA2278C7
:1006C00018EF2FFFEE33FEED33FDEC33FCC933C9D9
:1006D00010D7059BE99A4007EC9BFCE99AF90FD8E3
:1006E000E0E4C9FAE4CCFB2275F010EF2FFFEE3303
:1006F000FEED33FDCC33CCC833C810D7079BEC9A42
:10070000E899400AED9BFDEC9AFCE899F80FD5F0CA
:10071000DAE4CDFBE4CCFAE4C8F922EB9FF5F0EA89
:100720009E42F0E99D42F0E89C45F022E8600FEC23
:10073000C313FCED13FDEE13FEEF13FFD8F122BB44
:10074000010789828A830208535005E9F802079D50
:10075000BBFE05E9F802085F89828A8302086BBB49
:10076000010DE58229F582E5833AF58302085350AD
:1007700007E92582F802079DBBFE07E92582F802FA
:10078000085FE58229F582E5833AF58302086BBBB1
:10079000010789828A830207F25005E9F80207E619
:1007A000BBFE05E9F80208A422E6FC08E6FD08E61F
:1007B000FE08E6FF22E6FB08E6F908E6FA08E6CBC3
:1007C000F822BB010DE58229F582E5833AF5830223
:1007D000087B5007E92582F80207A9BBFE07E92537
:1007E00082F8020887E58229F582E5833AF58302DB
:1007F0000894ECF608EDF608EEF608EFF622ECF0B9
:10080000A3EDF0A3EEF0A3EFF022A8828583F0D051
:1008100083D082120815120815120815120815E463
:1008200073E493A3C583C5F0C583C8C582C8F0A38C
:10083000C583C5F0C583C8C582C822BB010DE5824A
:1008400029F582E5833AF5830207FE5007E9258200
:10085000F80208B0BBFE07E92582F80208C922E0C9
:10086000FCA3E0FDA3E0FEA3E0FF22E2FC08E2FD22
:1008700008E2FE08E2FF22E493FC740193FD740297
:1008800093FE740393FF22E0F8A3E0F9A3E0FAA338
:10089000E0FB22E2FB08E2F908E2FA08E2CBF822E8
:1008A000E493F8740193F9740293FA740393FB22AE
:1008B000ECF208EDF208EEF208EFF222D083D082DB
:1008C000E493F608740193F608740293F60874032F
:1008D00093F6740473D083D082E493F20874019386
:1008E000F208740293F208740393F2740473C0E084
:1008F000C0F0C083C082C0D075D00820F903020BBD
:100900001A30FD03020B1A20FB03020B1A20FC0312
:1009100002098D78B9E6F5FC53A1BFC2FF7510013D
:10092000AB12AA13A914851082758300120532F543
:1009300011C2FF43F92078BC761308768820FF1295
:1009400020FA0F78BDE6161870011678BDE6184635
:1009500070EB30FA03020B1A8511FC0510AB12AADA
:1009600013A914851082758300120532F511C2FF98
:1009700043F92078BC761308768820FF1220FA0FFE
:1009800078BDE6161870011678BDE6184670EB784B
:10099000BDE6184670BC020B1A53A1BFC2FF75100A
:1009A00000C2FF43F92078BC761308768820FF1236
:1009B00020FA0F78BDE6161870011678BDE61846C5
:1009C00070EB20FB4085FC1130FA03020B1A74987F
:1009D0002510F8A6110510C2FF43F92078BC761344
:1009E00008768820FF1220FA0F78BDE616187001ED
:1009F0001678BDE6184670EB85FC1178BDE6184602
:100A000070C6020B1A85FC107897A610AB12AA13B9
:100A1000A914AF1005108F82758300120532F511ED
:100A2000C2FF43F92078BC761308768820FF122095
:100A3000FA0F78BDE6161870011678BDE6184670F4
:100A4000EB20FC03020AED7897E6FF54F064807017
:100A50006B74002FF582E43400F583E075F003A495
:100A600024A9F582E43420F583E493F9740193FA20
:100A7000740293900181C9F0A3EAF0A3E9F030FA7F
:100A800003020B1A900181E0FBA3E475F00112054B
:100A9000DCA9F0FA120519F5FCC2FF43F92078BC75
:100AA000761308768820FFD620FAD378BDE616188C
:100AB00070011678BDE6184670EB80C220FA678593
:100AC00011FCAB12AA13A914AF1005108F82758305
:100AD00000120532F511C2FF43F92078BC761308E5
:100AE000768820FFD720FAD478BDE6161870011654
:100AF00078BDE6184670EB80C37897E6062498F830
:100B0000A6FCC2FF43F92078BC761308768820FF44
:100B10001220FA0F78BDE6161870011678BDE61897
:100B20004670EB30FAD3C2FF43F92043A14078A4CA
:100B30007601D0D0D082D083D0F0D0E032E49001E2
:100B400097F0900010E0FF900197E0C39F505EE0A7
:100B5000FB25E025E02423F582E43401F583120728
:100B6000FE00000000EB25E02443F582E43401F5AB
:100B700083E4F0A3F0900197E0FF25E02453F58291
:100B8000E43401F583E4F0A3F0900120E0FBA3E05E
:100B9000FAA3E0F975F004EFA4F58285F08312085A
:100BA0002F00000000900197E004F080951216924B
:100BB000E4900197F0900010E0FF900197E0FEC3F1
:100BC0009F5069EE25E025E02423F582E43401F509
:100BD00083C083C082E0FCA3E0FDA3E0FEA3E0FFAE
:100BE000900120E0FBA3E0FAA3E0F9900197E07503
:100BF000F004A4F58285F0831207B6EF2BFFEE3ADE
:100C0000FEED39FDEC38FCD082D0831207F2900162
:100C100097E025E02453F582E43401F583E475F090
:100C2000011205C6900197E004F08089C390015439
:100C3000E09405900153E094005003020BA1E4906E
:100C40000197F0900010E0FF900197E0FEC39F40F5
:100C500003020D60EE25E02453F582E43401F583B0
:100C6000E0FEA3E0FBAA06E4F9F8900197E025E096
:100C700025E02423F582E43401F583E0FCA3E0FDC4
:100C8000A3E0FEA3E0FF12067D9001981207F2E4B4
:100C90007F787E69FDFC900198E0F8A3E0F9A3E07D
:100CA000FAA3E0FBD312070F403E900198E0FCA3AB
:100CB000E0FDA3E0FEA3E02458FFEE349EFEED34F9
:100CC000FFFDEC34FFFC900197E0FB25E025E024DC
:100CD00000F582E43401F5831207F2EB25E0245598
:100CE000F876610876A8802E900197E0FB25E02534
:100CF000E02400F582E43401F5831207FE000000D1
:100D000000900198A3A3E0FEA3E0FFEB25E02455AB
:100D1000F8A60608A607900197E0FF25E02425F82D
:100D2000E4F608F6EF25E02455F8E6FE08E6FFE0D5
:100D3000FD25E0246DF8A60608A607ED25E025E0D0
:100D40002423F582E43401F5831207FE000000003D
:100D5000900197E025E02453F582E43401F583E423
:100D6000F0A3F0900197E004F0020C37900097E0B8
:100D700004F022900019E0F5C290FB04EFF0E4F5D6
:100D8000C375BB0F75B3A0F5AAF5BEF5BF75E61820
:100D900090FB05743BF0E490FB09F090FB0A74F0C3
:100DA000F090FB0B7478F090FB0CF090FB0D74014D
:100DB000F0E4F5BC75BD4B900198F0900010E0FF99
:100DC000900198E0FEC39F5024900120E0FBA3E037
:100DD000FAA3E0F975F004EEA4F58285F083120819
:100DE0002F00000000900198E004F080CE90019761
:100DF000740AF090FB0674FFF090FB07F090FB087C
:100E0000F0E4900198F0900010E0FF900198E0FE6F
:100E1000C39F504E121B22900120E0FBA3E0FAA3D7
:100E2000E0F9900198E075F004A4F582E92582F9D3
:100E3000EA35F0FAC002C00112073390FB00E0F877
:100E4000A3E0F9A3E0FAA3E02FFFEA3EFEE93DFDAF
:100E5000E83CFCD001D002120783900198E004F036
:100E600080A4E490FB06F090FB07F090FB08F09064
:100E70000198F0900010E0FF900198E0FEC39F50B1
:100E800055121B22900120E0FBA3E0FAA3E0F990A9
:100E90000198E075F004A4F582E92582F9EA35F0BD
:100EA000FAC003C002C00112073390FB00E0F8A3B0
:100EB000E0F9A3E0FAA3E0FBC3EF9BFFEE9AFEED9F
:100EC00099FDEC98FCD001D002D003120783900169
:100ED00098E004F0809DD2D8900197E014F0E06093
:100EE00003020DE7E4900198F0900010E0FF9001FC
:100EF00098E0C39F505FA31207FE000038409001A6
:100F000099E0FCA3E0FDA3E0FEA3E0FFE47B4BFA45
:100F1000F9F81205F29001991207F2900120E0FB16
:100F2000A3E0FAA3E0F9900198E075F004A4F5823B
:100F300085F0831207B6900199E0FCA3E0FDA3E0E1
:100F4000FEA3E0FF12067D900198E02465F8A60755
:100F5000E004F08094229001977407F0FD75E61884
:100F600075CF1FE4F5C375BB0F75B3A090FB067476
:100F7000FFF090FB07F090FB08F0900197E0FF6016
:100F80002274017E00A807088005C333CE33CED873
:100F9000F9FF90FB0AE0FBEF5B7008900197E0140B
:100FA000F080D7ED601D74017E00A805088005C3A0
:100FB00033CE33CED8F9FF90FB0BE0FBEF5B700331
:100FC0001D80E0900197E0FF7401A807088002C32C
:100FD00033D8FC90FB0AF07401A805088002C333E3
:100FE000D8FC90FB0BF090FB0CF09001981207FEE0
:100FF00000000000E4900197F0900010E0FF9001E5
:1010000097E0FEC39F505C74002EF582E43400F537
:1010100083E0FFF46045900197E02465F8E6F5BDB4
:10102000121B2E90FB00E0FCA3E0FDA3E0FEA3E07A
:10103000FF900198E0F8A3E0F9A3E0FAA3E0FBC376
:1010400012070F501490FB00E0FCA3E0FDA3E0FEAC
:10105000A3E0FF9001981207F2D2D8900197E00424
:10106000F08096900198E0F8A3E0F9A3E0FAA3E0FD
:10107000FBC000900198E0FCA3E0FDA3E0FEA3E02C
:10108000FF7803120720D000EB2FFFEA3EFEE93D78
:10109000FDE83CFC9001981207F2900198E0FCA357
:1010A000E0FDA3E0FEA3E0FF7810120720900020EF
:1010B000EFF0900198E0FCA3E0FDA3E0FEA3E0FFC9
:1010C0007808120720900021EFF0900198A3A3A3C5
:1010D000E0900022F022E49001A0F0A3F0A3F0A39E
:1010E000F07815E6FE08E6FF90019CEEF0A3EFF025
:1010F000A3EEF0A3EFF0E4FFF9FE900010E0FDEEA8
:10110000C39D5055EE25E02415F8E6FC08E6FDC326
:1011100090019DE09D90019CE09C5011AF06EE2552
:10112000E02415F8E6FD08E6CDF0A3EDF0EE25E0AD
:101130002415F8E6FC08E6FDD390019FE09D9001A0
:101140009EE09C4011A906EE25E02415F8E6FD0876
:10115000E6CDF0A3EDF00E80A1900098EFF0A3E9AA
:10116000F0E490019CF0A3F0FE900010E0FDEEC3CF
:101170009D507AEE25E02415F8E6FC08E6FDD394B0
:1011800023EC940040069001A3E004F0D3ED942DED
:10119000EC940040069001A0E004F0D3ED9437EC0D
:1011A000940040069001A1E004F0D3ED9441EC944A
:1011B0000040069001A2E004F0900098E06E6029E3
:1011C000EE25E02415F8E6FC08E6FDC390019DE05D
:1011D0009D90019CE09C5011AF06EE25E02415F88F
:1011E000E6FD08E6CDF0A3EDF00E02115D90009D46
:1011F000EFF09001A3E090009FF09001A0E090003C
:101200009AF09001A1E090009BF09001A2E0900084
:101210009CF0224101B3FF4801A400010204081020
:10122000204050018601680163010E010E010E018C
:101230000E010E010E4801770102040810204080C3
:1012400041017F0061000000050A0BFFFFFFFFFF67
:10125000FFFFFFFFFFFFFFFF02080FA000000032AB
:10126000080C060000280A0402000000000000002C
:101270000701FFFF000000AA0000000000000000BE
:10128000006464646464646464000000000000003E
:10129000000000000000000000000000000000004E
:1012A000000000000000000000000000000000003E
:1012B00001680163010E010E010E010E010E010E07
:1012C000010E010E010E010E0001020304050607C6
:1012D00008090A0B0C0D0E0F01FFFF000080000033
:1012E00000000000000000000000000000000000FE
:1012F00000000000000000000000000000000000EE
:1013000000000000000000000000000000000000DD
:1013100000000000000000000000000000000000CD
:1013200000000000000000000000000000000000BD
:1013300000000000000000000000000000000000AD
:1013400000000000000000FF00E4900196F0900013
:1013500010E0FF900196E0C39F40030214689001E3
:1013600020E0FBA3E0FAA3E0F9900196E075F00419
:10137000A4F58285F083120753EC4D4E4F700302A3
:10138000144F900196E025E025E02400F582E43436
:1013900001F583E0F8A3E0F9A3E0FAA3E0FBD312A0
:1013A000070F40037F0322900120E0FBA3E0FAA394
:1013B000E0F9900196E075F004A4F58285F08312BF
:1013C0000753900196E025E025E02400F582E434FF
:1013D00001F583E0F8A3E0F9A3E0FAA3E0FBC3EF93
:1013E0009BFFEE9AFEED99FDEC98FC78C21207E6A1
:1013F000E47FFF7EFFFDFC78C21207A9C312070F2E
:1014000040037F032278C212079D900196E0FD25DC
:10141000E02445F8A60608A607ED25E02456F9EDD8
:1014200025E02445F8E6FE08E6FFD397EE1997403D
:101430001BE025E02456F8C3EF96FFEE1896FEE079
:1014400025E02425F8A60608A607801F900196E04F
:1014500025E02425F8E4F608F68010900196E025B2
:10146000E02425F8E4F608F67F0322900196E004D4
:10147000F00213427F0722E4FF12004EE4FCFDC09D
:1014800004C005C006C0077825E6FE08E6FFE47B39
:1014900064FAF9F81205F2D003D002D001D000129C
:1014A000067D900198EEF0A3EFF09001977401F0A3
:1014B000900010E0FF900197E0F9C39F505EAF01EC
:1014C00012004EE4FCFDC004C005C006C007900138
:1014D00097E025E02425F8E6FE08E6FFE47B64FAC1
:1014E000F9F81205F2D003D002D001D00012067D27
:1014F00090019AEEF0A3EFF0D3900199E09F900154
:1015000098E09E400F90019AE0FFA3E0900198CFF1
:10151000F0A3EFF0900197E004F08094E49001973D
:10152000F0900010E0FF900197E0F9C39F5068AF82
:101530000112004EE4FCFDC004C005C006C00790C7
:101540000197E025E02425F8E6FE08E6FFE47B6449
:10155000FAF9F81205F2D003D002D001D000120639
:101560007D90019AEEF0A3EFF0900198E0FCA3E0EB
:10157000FDC3EF9DFDEE9CFC900197E0FB25E02470
:1015800015F8A60408A605EB25E02435F8A60608FC
:10159000A607E004F0808A229001967408F01214E5
:1015A0006B121BB4BF010A900092E0FF120076801C
:1015B0000302168C7F02122031D3788EE69F18E644
:1015C0009E400280157887E6FE08E6FFD39400EE81
:1015D00094004014EF64014E7006121FD702168764
:1015E0007888E61618700116900092E09001B3F02A
:1015F0002410605414605F24F27073786DE6FE0866
:10160000E6FF08E6FC08E6FD1221B4D3EF94A0EE55
:101610009400400A789406E6187009068006E4787B
:1016200093F608F67F07122031D37894E69F18E6E8
:101630009E40069001967403F0121FD7E47885F659
:1016400008F608F608F68050121FD77888E6184684
:1016500070467F06800C121FD77888E618467038CF
:101660007F041220317887A60608A607802AE4782E
:1016700087F608F69001B3E0FF121DE2788606E6D1
:10168000187001067F05122031D37886E69F18E690
:101690009E400512000E8000900196E0FF2290000F
:1016A0001AE090019EF0E490019CF0900010E0FFA1
:1016B00090019CE0FEC39F5024900120E0FBA3E03A
:1016C000FAA3E0F975F004EEA4F58285F083120820
:1016D0002F0000000090019CE004F080CE75E61819
:1016E00075CF1F90FB0674FFF090FB07F090FB088E
:1016F000F0900018E090FB04F0900020E0F5C3A308
:10170000E0F5BBA3E0F5B3E4F5BC90019CF09001DB
:101710009EE0FF90019CE0C39F5074E4A3F0900012
:1017200010E0FF90019DE0C39F505BE0FF2465F84F
:10173000E6F5BD74002F121B25900120E0FBA3E00D
:10174000FAA3E0F990019DE075F004A4F582E92583
:1017500082F9EA35F0FAC002C00112073390FB00AB
:10176000E0F8A3E0F9A3E0FAA3E02FFFEA3EFEE9E8
:101770003DFDE83CFCD001D002120783D2D8900195
:101780009DE004F0809890019CE004F0021702753F
:10179000E61875CF1F221220811221CA9000907482
:1017A00001F0122059121E35121F4043D40843DCA9
:1017B0000853E4F7D2B390009E74FFF0121FA843C1
:1017C000D40343E40343B003900090E024FD603170
:1017D00014603924FE604E1460551460652407704F
:1017E0006712219D122059121D8C1221EA12000E3F
:1017F000121FA87F0A1220317895A60608A6078036
:1018000041121D8C1221EA12000E80369001AEE0CA
:1018100004F070069001ADE004F012169290009072
:101820007406F0802312133D900090EFF08019129F
:10183000158C900090EFF078A5E678B9F6121CB6FA
:1018400080069000907404F09000FBE06029E4783A
:10185000A4F6C2B3F0900175F0A3F0900176E00415
:10186000F07006900175E004F0900175E07004A33B
:10187000E0645070E6D2B378A4E6600678A5E6444A
:1018800008F6D2D8121ECE0217BC43F580C2DC0087
:1018900020DCF790FF03E493FFF4FE90FF02E49353
:1018A000FDB506048D9A8003759A4C90FF05E4936C
:1018B000FFF4FE90FF04E493FDB506048D848003DD
:1018C00075840490FFFEE493FFF4FE90FFFFE49321
:1018D000FDB506048D8F8003758F2543C60C9000DF
:1018E000007F007E04E4F0A3DFFCDEFA78FFE4F67C
:1018F000D8FD7581C502192A02000002178AE493F7
:10190000A3F8E493A34003F68001F208DFF48029F2
:10191000E493A3F85407240CC8C333C4540F4420E1
:10192000C8834004F456800146F6DFE4800B0102D0
:10193000040810204080901207E47E019360BCA34D
:10194000FF543F30E509541FFEE493A360010ECF1E
:1019500054C025E060A840B8E493A3FAE493A3F848
:10196000E493A3C8C582C8CAC583CAF0A3C8C58208
:10197000C8CAC583CADFE9DEE780BE1210CA90007C
:1019800010E0FF900091E0FEC39F5013EE25E0248D
:1019900036F9C3E7943219E794004003E0FF229040
:1019A0000098E0FE25E02416F9D3E7943219E79475
:1019B000004009900091E0FFF46004227FFF22D3F1
:1019C000796EE778709619E718964007E490019BC6
:1019D000F0800690019B7401F090019BE06E7040D6
:1019E000786DE6FE08E6FF08E6FC08E6FD1221B485
:1019F000900199EEF0A3EFF07845E6FE08E6FF08C7
:101A0000E6FC08E6FD1221B490019AE02450FD9016
:101A10000199E03400FCC3EF9DEE9C50407FFF2213
:101A2000900098E025E02445F8E6FC08E6FD9001EA
:101A30009BE025E02446F9D3E79D19E79C40037F0E
:101A4000FF22900098E025E0246EF8E62450FF186D
:101A5000E436FEC3ED9FEC9E50037FFF229000987A
:101A6000E0FF2253D2EF53D3FB43DD1043E2104398
:101A7000E50443E304900002E0FF121E8790001982
:101A8000E0F5C2900018E090FB04F0E4F5C375BBEC
:101A90000B75B3B8F5AAF5BEF5BF75E618A3743B90
:101AA000F0E490FB09F0A37480F0A3F0A3F0A3741A
:101AB00001F0E4F5BC75BD32900002E0FF121B2E70
:101AC00090FB00A3A3E0FEA3E0FDAC06900184EC34
:101AD000F0A3EDF0900002E0FF121E87AE04AF0508
:101AE000BE0B12BFB80F90FFFBE493647660037FD8
:101AF00000227F0122E4FFFEFD30A2010E0DEDB4B5
:101B00000AF7EED3940840020F0FE4FEFD30940173
:101B10000E0DEDB40AF7EED3940840010FEF25E067
:101B20002403F582E43400F583740193FF227400EA
:101B30002EF582E43400F583E0FFEF131313541FF6
:101B4000FEEF540790214E93FDEFD3941740037F8F
:101B50000022EE14600F14601424027018ED42E1AC
:101B6000ED42D98013ED42E2ED42DA800BED42E323
:101B7000ED42DB80037F0022EF4420F5E675C70DC0
:101B800000000000000043C101E5C130E1FB53C18A
:101B9000FD75E618EE14600F14601424027018ED41
:101BA000F452E152D98013EDF452E252DA800BED97
:101BB000F452E352DB80037F0022E4F5C77F012269
:101BC00012196F900197EFF0F4706DA3F090001070
:101BD000E0FF900198E0FEC39F505DEE25E0246D8C
:101BE000F8E6FE08E6FFE4FCFD78BE1207E6E47FB7
:101BF0001FFEFDFC78BE1207A91205F2C004A9055C
:101C0000AA06AB07900198E025E02445F8E6FE0817
:101C1000E6FFE4FCFDD000EB2FFFEA3EFEED39FDD0
:101C2000EC38FC7805120720E025E0246DF8A606C4
:101C300008A607E004F08095900197E0FF121F7658
:101C4000EF7002FF227F0122C0E0C0F0C083C0829B
:101C5000C0D075D000C000C004C005C006C007C217
:101C60008D758CFD758A869001B5E004F070069044
:101C700001B4E004F09001B4E0FEA3E0FF7C077D36
:101C8000D0120571ED4C70259001ADE0FEA3E0FF90
:101C9000D3940AEE940040089001AFEEF0A3EFF069
:101CA0009001ADE4F0A3F09001B4F0A3F0D007D020
:101CB00006D005D004D000D0D0D082D083D0F0D0D0
:101CC000E032E4900196F0900196E0FF25E02435A3
:101CD000F8E6FC08E6FDEF75F008A424ABF8A604CE
:101CE00008A605E0FF25E02425F8E6FC08E6FDEF60
:101CF00075F008A424ADF8A60408A605900120E01C
:101D0000FBA3E0FAA3E0F9900196E075F004A4F5D6
:101D10008285F0831207537808120720900196E01D
:101D200075F008A424AFF8A60608A607E004F0E0C2
:101D3000B4029422900019E0F5C2900018E090FBE4
:101D400004F0900020E0F5C3A3E0F5BBA3E0F5B3F9
:101D5000E4F5AA900014E0F5BEA3E0F5BFA3E0F51A
:101D6000BCA3E0F5BD75E61890FB05743BF090FB55
:101D70000674FFF090FB07F090FB08F0E490FB097D
:101D8000F090FB0A74F0F090FB0B7478F090FB0C71
:101D9000F090FB0D7401F02290009174FFF0A3F01D
:101DA000E4A3F07885F608F67889F608F608F608D0
:101DB000F608F608F608F608F67887F608F6789337
:101DC000F608F6FF900010E0FEEFC39E501F900152
:101DD00020E0FBA3E0FAA3E0F975F004EFA4F5829C
:101DE00085F08312082F000000000F80D722E4FE48
:101DF000900010E0FDEFC39D501E900091E06F60D9
:101E000017E47885F608F674A42FF582E43401F51A
:101E100083E0FE900091EFF0900091E0FF90009E33
:101E2000E06F6014EF14600304700D9000FBE0702D
:101E30000704F0EE0478A5F6900091E090009EF083
:101E400022E478A5F6087607121A5778A7A607E4C1
:101E500008F6FFEF75F008A424A9F876000876329A
:101E6000EF75F008A424ABF8E4F608F6EF75F00877
:101E7000A424ADF8E4F608F6EF75F008A424AFF852
:101E8000E4F608F60FEFB402CA7512007513007578
:101E900014A522EF131313541FFEEF54072477F5F4
:101EA00082E43401F583E0FFEE14601214601A241A
:101EB000027021EF42E1EF42D9EF42D18019EF42A7
:101EC000E2EF42DAEF42D2800EEF42E3EF42DBEF85
:101ED00042D380037F00227F01227898E6FF6032A0
:101EE000E4F6EF24E0600C24A0600D247070237FE2
:101EF000018002E4FF02216B1220051221851220CD
:101F0000CD53DCF753E4F753D4F7D2B39000907479
:101F100001F022E4FEEE75F003A42456F582E434C9
:101F200021F583E493FDF4601FEFB50516EE75F01F
:101F300003A42457F582E43421F583E493FE74016D
:101F400093FF220EEEB407CDE4FEFF227E007FE079
:101F5000E4FDED25E024F0F582E43420F583E493FC
:101F6000F4601EED25E024F1F582E43420F583E4ED
:101F700093FCEF2DF582E43EF583ECF00DEDB4100B
:101F8000D12290001FE0FE900092E06F6005EFF01C
:101F9000E4A3F0900092E0B4FF02E4FEAF069000EC
:101FA00093E004F0C39F50037F00229000937404D9
:101FB000F07F012243B14053FAF790FFF8E493B465
:101FC000F80B43FA0443F90243F901800343FA048E
:101FD00043F90243F90153F9BF75FB4053FAFD433E
:101FE000A14022E47885F608F690009174FFF09005
:101FF000009EE0FFF46013EF14600304700C900087
:10200000FB7401F078A5E64408F690009E74FFF09A
:1020100022E4F5D9F5D1F5E1F5D57580FFF5DAF5CE
:10202000D2F5E2F5DD7590FFF5DBF5D3F5E3F5E5E7
:1020300075A0FF43DC0843E40853D4F7229000E086
:10204000EFB4FF057F017E0022E5822FF582E435A3
:1020500083F583E0FB9001AFE0FCA3E0FDAF037EDE
:102060000012055F22E4900097F09001ADF0A3F01C
:102070009001AFF0A37420F090002A74FFF090015B
:10208000207401F0A37400F0A374A0F02243850330
:1020900043910153E12053D52053802053E23C5318
:1020A000DD3C53903C53E30353E50353A00353E457
:1020B0000B53B00B2200004500006D0000550000DE
:1020C0005D00001500001D00002500002D0100919D
:1020D000000065010184000067AFD653C7FBE4F53B
:1020E000D6C2D953A1EF539AF05391FE5387FC43C4
:1020F000870200004391018FD60221DB000201011B
:10210000020103010401051E06050702080A09026F
:102110000A020B280C3C0D1E0E01FF01E4FD90008D
:1021200010E0FFEDC39F501274002DF582E43400DF
:10213000F583E0FF121E870D80E422438901C28DE2
:10214000D2A953B7FD53B8FDE49001B4F0A3F075E4
:102150008CFD758A86D28CD2AF2201020408102031
:102160004080010521060995020CF10C0F41141164
:10217000A8041662FF00FFEFB40111C295C2A17F4F
:102180000A1220317895A60608A60722D295D2A178
:102190002243DC0843E40853D4F7D2B353B2FDE43E
:1021A000F5BA5391DF43A1022275C60CE4F5C7F5D9
:1021B000C175CE4275D6061221DB12212FD2AF2275
:1021C000D3EF9DEE9C4007EF9DFFEE9CFE22C3EDFA
:1021D0009FFFEC9EFE2243AD2053DADF43AE025355
:1021E000DBFDD295D2A122D2DFC2DA538E1F438EFD
:1021F000A0D2D8D2D922122110021D2853B2DF3228
:0C220000FFFFFFFFFFFFFFFFFFFFFFFFDE
:00000001FF
