:106DFA0000006D848AD09E58AC4CB6C2BEE69000A4
:106E0A0000000F010E020D040C050B060A080A0AFF
:106E1A000909090B090C080C080D080E070E070FC3
:10703100901545E0FEA3E0F5828E83E0227D017B81
:06704100FF7E00022F1E7D
:1070AF00127031759B00F59AD29AC29BC29CC298FE
:0370BF00C2992251
:06715100759B008F9A22DD
:08713A00C21C12680E0270AFC6
:10680E00784A7C147A6D79FA7F1012703EC2EDD2FE
:10681E00EAD2EED2EBD2EFD2ECE4F58BF58A9015FC
:10682E00BB12703425E0244AF582E43414F583E07B
:10683E00FEA3E0FF4E600A8EAB8FAAD28BD2888069
:10684E0009E4F5ABF5AAC28BC288E4F593F592F58F
:10685E00B3F5B2C28CC289C28ED28FF5BBF5BAD255
:10686E008DC28AF5C8F5B8D2A8D2A9C2AAC2ABC247
:0D687E00ACC2ADC2E8C2E9C2AED2AFD2C119
:01688B0022EA
:030003000265B6DD
:1065B600C0E0C0F0C083C082C0D075D000C000C0AB
:1065C60001C002C003C004C005C006C0079015EA9A
:1065D60012703430E703127087302162D21C3014F7
:0165E6005F55
:1065E700782A7C147A6E790A7F2012703E901549BA
:1065F700E0FEA3E0FFF5828E83E025E0242AF58202
:10660700E43414F583E0FD9015ECE0FAA3E0F5829D
:106617008A83EDF08F828E83E025E0242BF582E4D8
:106627003414F583E0FF901606E0FCA3E0F5828CB6
:0B66370083EFF0127031759B00F59AA4
:106642008002D220D007D006D005D004D003D002D9
:0F665200D001D000D0D0D082D083D0F0D0E032B1
:03000B0002710F70
:0C710F00C288301C04D220C21CD288327E
:03001300020021C7
:0100210032AC
:03001B00020022BE
:0100220032AB
:0300230002715710
:06715700309802C29832DC
:03002B00020029A7
:0100290032A4
:0300330002002A9E
:01002A0032A3
:03003B0002002E92
:01002E00329F
:0300430002002F89
:01002F00329E
:103E6200901450E0FB75F027A42431F582E5F0347C
:103E720003F583E0FF3395E0FE7C007D0F122FF106
:103E820075F027EBA42430F582E5F03403F583E0E6
:103E9200FD3395E0FCEF2DFFEE3CFEEF25E0FFEE5B
:103EA20033FE9015B7E0FCA3E02FF582EC3EF583DC
:103EB200E022901450E0FF75F027A4242EF582E54D
:103EC200F03403F58322901450E0FF75F027A42408
:103ED2002FF582E5F03403F58322901450E0FF754C
:103EE200F027A4242AF582E5F03403F583E0FEEFFF
:103EF20075F027A4242CF582E5F03403F583229093
:103F02001450E0FF75F027A42429F582E5F034036C
:103F1200F583E0FEEF75F027A4242BF582E5F0345B
:103F220003F58322900318E0FCA3E0FD90147B7458
:103F320001F0A37414F0745DA3F0A37401F0A32242
:103F4200E4901456F07B0104901477F0A37414F0FB
:103F5200A37457F090144EE090147AF022EFF09090
:103F62001450E0FF75F027A422900318EEF0A3EF9F
:103F7200F0900318E0C313FEA3E013FF22EF75F0E5
:103F820027A42429F582E5F03403F583222430F5B1
:103F920082E5F03403F583E0FE75F027EF2275F039
:103FA20002ED123335E0FF3395E0FE7C007D0F0217
:103FB2002FF19015B7E0FEA3E0FF24F8F582EE346E
:103FC20002F583E0FCA3E0901459FDE0FAA3E0FBC4
:103FD20022A4242AF582E5F03403F5832275F00247
:103FE200123335E022C3E0FFEE6480F8EF6480987C
:103FF20022A3F0E4900324F0A3F0901287F0A3F040
:10400200900327F0A3F090031CF0A3F022242DF5D7
:1040120082E5F03403F583E0227D017B017E007F9F
:1040220009022F1E90147BE025E0F090147AE03311
:10403200F0227C007D03123003901461EEF0A3EFB6
:10404200F0D322FEA3E0FFD390145AE09F901459BC
:10405200E09E22A42430F582E5F03403F583E0C328
:104062009EFF22901451E07B017A147953901450F0
:1040720022A42431F582E5F0340322901479E0750C
:10408200F006A422EF24FEF582EE3402F583E0FE70
:10409200A3E0D39BEE9A227401F0A3EAF0A3E9F025
:1040A2002275F006A42409F582E43400F583EFF0CA
:1040B200227414F0745FA3F090144EE02275F0069F
:1040C200A42408F582E43400F58322901461E0FE12
:1040D200A3E0FF22F583E0FCA3E0FDEF75F00BA463
:1040E20022900006E4F0A37496F022E0C39EC3641B
:1040F200802290144FE004F0227402F0A374C0F006
:1041020022240CF582E43400F583EFF022240DF52D
:1041120082E43400F583EFF022ED25E0FDEC33FC80
:1041220022E4901285F0A3F022901453E0D3940875
:1041320022900002F0A3F090031AF0229015B7E04B
:10414200FEA3E0AA06F922E0FEA3E0FF900319E035
:104152002F22FFE0FBA3E0FAA3E0F9EF2290146321
:10416200747FF0A374FFF0227D017B017E00022F99
:104172001E240AF582E43400F58322240BF582E43E
:104182003400F58322E0FF90144FE02290031A746A
:0641920001F0900326225B
:106D1F007E027F887D007B017A0079381233417EB5
:106D2F00007F587D007B017A0279C0123341E4FF66
:106D3F0075F051EFA42438F582E5F03400F5837433
:076D4F00FFF00FEFB408E9AB
:016D5600221A
:10616500C213E4124133900326F0900000F0A3F02F
:10617500900323F0900318F0A37496F0900006E4C2
:10618500F07496123FF3900004F0A3741EF0C21B46
:10619500E490031BF012413E90144A124099A3E586
:1061A5000AF090144FE50DF090144EE50CF09014A4
:1061B50050E509123F3B7403F0A37429F0786C7C19
:1061C500147A14794A7F0A12416A126977301547A1
:1061D5009014547401F0A31240FB90166FE09014D4
:1061E50057F0901663E0901458F0901678E09014EC
:1061F50059F0901680E090145AF0901672E0FFA3C3
:10620500E090145BCFF0A3EFF0786C7C147A1479EE
:106215005412401B12670C12413E90145D7401F03C
:10622500A3EAF0E9123F3A7400F0A37408123F3B69
:106235001240FB786C7C147A14795D12401B126D48
:10624500C69014667401F0A37400F0A37438123F6D
:106255003B1240FB786C7C147A1479667F061241F8
:076265006A126F5C026D1F5D
:05000600A205921A2280
:03001E00A21A2201
:106F3A00E4900324F0A3F0EF6017AF03EF3395E07A
:106F4A00FEC3E5099E25E0FEE433900324F0A3CEB8
:026F5A00F02223
:106EF200EDB40106EF75F040800EEDB40206EF75B9
:106F0200F0108004EF75F040A4FF901287E5F0F0D6
:046F1200A3EFF022D7
:106F1600EDB40106EF75F020800EEDB40206EF75B4
:106F2600F0048004EF75F020A4FF900327E5F0F04D
:046F3600A3EFF022B3
:106ECC00900324124149FF900318E03EFE90128873
:106EDC00E02FFF901287E03EFE900328E02FFF90FA
:066EEC000327E03EFE2238
:10666100E4FFFE901676E0FDEFC39D40030266F461
:10667100EEC39408507975F051EEA4243AF582E501
:10668100F03400F583E0D364809480405EEF75F0D0
:106691000BA424C0F582E43402F583EEF075F051C9
:1066A100A4243BF582E5F034001240D624C1F582E2
:1066B100E43402F583ECF0A3EDF075F051EEA4247F
:1066C1003DF582E5F034001240D624C3F582E4346E
:1066D10002F583ECF0A3EDF0EF75F00BA424C7F500
:1066E10082E43402F583E4F00E80040E0266710F39
:1066F100026664126C6990031AE060091200269028
:0A670100031AE014F0E4901676F09D
:01670B00226B
:0C602900901477EDF0901474EB12409B83
:10603500122F44901479F0E4A3F0A3F0901478F0B3
:10604500901477123F6412400FFE901478E0FDC360
:106055009E505975F027EF123ED0123FA09014774D
:10606500E0123EB9C083C082901478E0D082D0831C
:1060750075F002123335123E91FCA3E090147A12AA
:106085003FCCD39DEC6480F8EA6480984006AE026C
:10609500AF038007123EA4FEA3E0FF90147AEEF052
:1060A500A3EFF0901478E004F002604530052590E8
:1060B5001477E0123ECDE0B509031240269014771F
:1060C500E0123EB9E0FDB50A03124026E50DB5051F
:1060D50003124026126ECCD390147BE09FEE6480B1
:1060E500F890147AE06480984069901477123F64C0
:1060F500123F84E0FE901479E0FD75F006A412418C
:1061050073EEF0123F16E0FFED75F006A4124103A1
:10611500901477123F64123FD4E0FEED75F006A4AB
:1061250012417DEEF0123EF1E0FFED75F006A4128E
:10613500410F901477123EB7E0FEED1240BFEEF02E
:1061450075F027EF123ED0E0FFED1240A3901479D1
:10615500E004F0901479E0901474124154022FBDBC
:0C5D2F00901477EDF0901474EB12409B80
:105D3B00122F44901479F0E4901478F090147712A9
:105D4B003F6412400FFE901478E0FDC39E400302A7
:105D5B005ECF75F027EF123ED0123FA0901477E084
:105D6B00123EB9C083C082901478E0D082D0837584
:105D7B00F002123335123E91FEA3E0FDAC06300566
:105D8B0054901477E0123ECDC083C082901478E01B
:105D9B00D082D083123FDFB5090312411B901477D9
:105DAB00E0123EB9C083C082901478E0D082D083D9
:105DBB00123FDFB50A0312411B901477E0123EB974
:105DCB00C083C082901478E0D082D083123FDFB5BD
:105DDB000D0312411B126ECCD3ED9FEE6480F8ECD9
:105DEB006480985003025EC6901477E0123EB9C0EF
:105DFB0083C082901478E0D082D083123FDFFFB54E
:105E0B000A028003EF14FF12407D124173EFF090F2
:105E1B001477E0123EB9C083C082901478E0D08230
:105E2B00D083123FDFFFB50D028003EF04FF12405A
:105E3B007D124103901477E0123ECDC083C0829057
:105E4B001478E0D082D083123FDFFFB50C028003C1
:105E5B00EF14FF12407D12417DEFF0901477E012AA
:105E6B003ECDC083C082901478E0D082D083123FA5
:105E7B00DFFFB509028003EF04FF12407D12410FD3
:105E8B00901477123EB7C083C082901478E0FED096
:105E9B0082D083123FDFFD901479E0FC1240BFEDFE
:105EAB00F075F027EF123ED075F002EE123335E0AD
:105EBB00FFEC1240A3901479E004F0901478E00406
:105ECB00F0025D47901479E0901474124154022F44
:015EDB00BD09
:050B430090144EEFF0DC
:100B4800E4901463F0A3F0901468F0A3F0C201904D
:100B58001453F0901452F0901456F0901458F0FE7C
:100B68007F30FD7B017A007908123341900004E060
:100B7800FEA3E0FF90146AEEF0EF1240B8600B128B
:100B88003F261240B39014818023900004E0FEA316
:100B9800E0FF301B0FA3123F297414F0A3745FF019
:100BA800E4A38009123F261240B3901481F07B0120

:100BB8007A147959121581901451EFF0D390145A80
:100BC800E094B8901459E0940B400E90144EE070E5
:100BD80008D205126FFB7F022290144EE0601CD3EE
:100BE800901286E0940A901285E064809480400B0D
:100BF800C205126FFB1241237F0322901451E0D3E8
:100C08009400500302123690144EE060519014592B
:100C1800E0FEA3E0FF94E8EE94035010901286E003
:100C280004F0700B901285E004F08003124123EE6B
:100C3800C313FEEF13FF12403B94FAEE94004005F5
:100C48001240CD80047E007FFA123F6BD39496EE5B
:100C580094004003020CC87E007F96020CC8301B2B
:100C68003390145AE025E0FF901459E033FE124007
:100C7800349458EE940240051240CD80047E027FE1
:100C880058123F6BD3941EEE9400400280047E00FD
:100C98007F1E802C901459E0FEA3E0FF124034948C
:100CA80096EE940040051240CD80047E007F961297
:100CB8003F6BD3941EEE9400400280047E007F1E9A
:100CC800900004EEF0A3EFF0900006E0FEA3E0FF32
:100CD800C3901462E09F901461E09E503590031B0E
:100CE800E06401602DEF9496EE9400405790144E06
:100CF800E06008900007E024FF800D900007E030D6
:100D08001B0424FF800224FBF0900006E034FFF06F
:100D1800803290144EE060121240E39016AF1241F8
:100D280049F0900318E03EF0801A900318E0301B59
:100D380008C313FFA3E0138003FFA3E0900006CFCE
:100D4800F0A3EFF0900318E0FFA3E090146CCFF04D
:100D5800A3EFF0E4901450F0901451E0FF90145079
:100D6800E0FEC39F400302124EC202EF94644003A8
:100D78007FFE2290144EE06026EE123F80E0FFEEE8
:100D8800123F17E0C39FC364809480500D123EDC6D
:100D98001240ED94805003020EBCD202020EBC1227
:100DA8003F01E0C39EFFC364809480501B901450A1
:100DB800E0FE75F027123FD3E0FDEE123EF2E0C3ED
:100DC8009DC3648094804002D202C3E50D950AC396
:100DD800123FEB5003020EBA123EDC1240ED948A29
:100DE8005003020EBAE4901465F0A3F0901450E09A
:100DF800123F80E090144FF0901450E0FF123F171C
:100E0800E0FD3395E0FC90144FE0D39DEC6480F84E
:100E18007480985063123F7FE0FD901450E0123FB9
:100E280017E0FF3395E0FEEDD39FEE6480F8748001
:100E380098503FED75F00FA4FF90144FE07A002F03
:100E4800FFEA35F0FEEF25E0FFEE33FE9015B7E040
:100E5800FAA3E02FF582EA3EF583E0FEA3E04E60B8
:100E68000E901466E004F07006901465E004F00D2E
:100E780080A81240F4020E00123F61123FD4E0FD38
:100E88003395E0FC123EF1E0FF3395E0FEC3EF9DA1
:100E9800FFEE9C123FACD3901466E09F901465E07F
:100EA8009E400B3012037F0222D205126FFBD2192B
:100EB8008002C21920020302122D901452E004F09D
:100EC800123F01E0C39EFE123F61123FD4E0FD12C3
:100ED8003EF1E0C39DFCD364809481401990144E88
:100EE800E06006AF047D018010AF04301B047D0272
:100EF8008007E4FD8003E4FDFF126EF2D3EE648008
:100F08009481401990144EE06006AF067D01801070
:100F1800AF06301B047D028007E4FD8003E4FDFF7B
:100F2800126F16123EB4123F99123ED0E0FC901494
:100F38004EE0FFAD06AE04AB06126F3A301B3DD350
:100F480090145AE09458901459E09402402E126E6E
:100F5800CCC312404A5025126ECC901459E0FCA321
:100F6800E0FDC3EF9DFFEE9CCF24FFCF34FFFEC30F
:100F7800900319E09FF0900318E09EF0123F611271
:100F8800400F6401600302101F75F027EF123F093C
:100F98001240ED9482502A123EB4E0FEB50A028057
:100FA80006123EB4E014FE123F7FEEF0123EB4E0AB
:100FB800FEB50D028006123EB4E004FE123F16EEA6
:100FC800F0123EDC1240ED9482502E123EC8E0FE34
:100FD800B50C028006123EC8E014FE75F027EF1229
:100FE8003FD3EEF0123EC8E0FEB509028006123E7D
:100FF800C8E004FE123EF1EEF0124065B40106E0CE
:10100800FDD2058004E0FDC20512602912412B5073
:101018000302122D7FFE22901450E0F975F027A4E8
:0810280012400F700302122DAB
:10103000D204123E62FAA3E0FB75F027E9123ED01B
:10104000123FA775F027E9A4242EF582E5F03403BA
:10105000123E8FFEA3E0FFD39BEA6480F8EE64802B
:101060009840028007123E62FEA3E0FF90145BEE00
:10107000F0A3EFF0201B0690144EE06015124069BB
:10108000E0FDC20512602912412B500302122D7F90
:10109000FE22123EB4123F99124055C364809480E0
:1010A0005006EFF404FF8009123EB4123F9912403B
:1010B0005590146EEFF0123EC8123F991240731211
:1010C000405EC3648094805006EFF404FF800C12ED
:1010D0003EC8123F9912407312405E90146FEFF0B9
:1010E00090146EE0D394054003021225A3E094050A
:1010F0004003021225123F61123F8F123EBC123F85
:10110000E750028002AF06901470123F5F123F8FCB
:10111000123EBCD3123FE840028002AF0690147129
:10112000123F5F124074123F97123ED0123FE750B9
:10113000028002AF06901472123F5F124074123F99
:1011400097123ED0E0FFD3123FEA40028002AF0682
:10115000901473EFF090146FE0FF90146EE0C39F53
:101160005053901472E00490144FF0901473124195
:1011700087FEC39F40030211FFEE75F00FA4FF909E
:101180001470E0FD7A002FFFEA35F0FEA3E0C39D66
:10119000C3137C002FFFEC3E123E9CFCA3E0FD90AD
:1011A000145B123F76C3ED9FEC9E5004C204804F47
:1011B0001240F480B6901470E00490144FF0901434
:1011C00071124187FBC39F5036901472E0FFA3E079
:1011D000C39FC313FDEF2DFFE433123FACEB2FFF92
:1011E000EC3E123E9CFCA3E0FD90145B123F76C3E4
:1011F000ED9FEC9E5004C20480051240F480BF3085
:10120000041B124065B40106E0FDD2058004E0FD38
:10121000C20512602912412B40137FFE2212155F76
:0D122000400B7FFE2212155F40037FFE226F
:10122D00901450E004F0020D60C3901460E094053A
:10123D0090145FE094005009900004E4F0A3741E34
:10124D00F030154F90144EE06027123FB4D3ED9B54
:10125D00EC9A50051240864037E4901453F0126E0C
:10126D00CCEF24C2FFEE3401901463F0A3EFF080B5
:10127D0022123FB4D3ED9BEC9A50051240864010DC
:10128D00E4901453F090146304F0A374C2F080033F
:10129D0012415F901453E0FFD39400500302137773
:1012AD0090031BE0B40112900318E0FCA3E0FD9045
:1012BD000004E0FAA3E0FB8011901453E0FF9003CB
:1012CD0018E0FCA3E0FD7BE87A031227B1901456D9
:1012DD00EFF0901456E06002D2117401123F4A12E1
:1012ED001577920390031B7401F0E490144FF09066
:1012FD001456124187FEC39F502B75F051EEA42456
:10130D0039F582E5F03400F583E0FEB40108900371
:10131D001B7403F0800AEEB4030690031B7402F0F5
:10132D001240F480CAEF6018D20190144EE06002B2
:10133D00801A900326E0C3940540030214338021E4
:10134D0020030302143390144EE0600912418E7491
:10135D0005F0021433900326E0C3940540030214F4
:10136D003312418E7403F0021433900326E060258E
:10137D00901453E0901456F09014777401123F4D71
:10138D00121577D201901457E060030214339003C5
:10139D0026F0021433A211E433FF900326E070040B
:1013AD007E0180027E00EE5F601B120030126661CE
:1013BD00901676E0901453F0C211E4900323F012CE
:1013CD00413302143390145FE07002A3E06021D327
:1013DD00900007E09496900006E09400400EA3E084
:1013ED0024FFF0900006E034FFF08007C21B800060
:1013FD001240E3900003E004F07006900002E00458
:10140D00F090144EE0900318600BE4F0A374FAF022
:10141D0012412380031240E6900004E4F0741E1282
:10142D003FF390031BF0201503021505D390145EB6
:10143D00E094C890145DE09400400312415F901554
:10144D00B8E024EEFF9015B7E03402FAA907901426
:10145D0077124099901463E0FFA3E090147ACFF0D7
:10146D00A3EFF07B017A147955125B79901454EF48
:10147D00F07003021501D213E0FF64F06005EF6414
:10148D000F70419014587401F0D201EF64F0706D3B
:10149D00901455E02477FFE43401123E9C12404530
:1014AD00400AE4901458F0C20102150A901456E057
:1014BD00604B901457E06045123F427A14795612F2
:1014CD004F0980EE901454E064017031A3E024774D
:1014DD00FFE43401123E9C1240455021901456E019
:1014ED00601B901457E06015123F427A1479561222
:1014FD004F0980EEC2138005E4901458F030013688
:10150D00C205120006900323E004F0E0D3940F40CF
:10151D0002E4F07B017A0279C0901456E0FD90143C
:10152D0058E0901478F0900323E0FF901479E4F0E4
:10153D00A3EFF01257C320110330130890146774F2
:10154D0001F08008126D1FE4901467F0901467E0AD
:01155D00FF8E
:10155E00227B017A147953901450E0FDC205125D7E
:10156E002F901453E0D39408227B017A14795612EB
:03157E004F0922F0
:030000000200609B
:1000600000000075C00075A80075E80090000078D9
:10007000007900E4F0A308B800FA09B919F6F0789D
:1000800001760008B880FA780075C1007581800299
:10009000710200000000DFFA1EBEFFF622D2C090FF
:1000A00004E8000000D582FAD583F7C2C022119D72
:0700B000DFFC1EBEFFF82279
:10704700EB25E0243AF582E43416F58322C9F0A350
:06705700EAF0A3E9F022BB
:0E70F4008F993099FDC2997F1E7E0002009296
:0A7126007F021270F47FA30270F4E0
:0A7130007F031270F47FB30270F4C5
:10004600AB07ECFF127047E4F0A3EFF0FEAF05122A
:080056007047EEF0A3EFF02269
:07650A00901474EB127055B0
:106511009015077401F0A37414F0A37477F090142C
:1065210074E0F9A3E0FAA3E090150A1270549015F3
:1065310007E0F9A3E0FAA3E090150D1270547B0176
:106541007A14799F126B1CE4901503F0A3F07B0180
:106551007A14799F127072901503EEF0A3EFF01286
:1065610071267F511270F4901503E0FF1270F490C0
:106571001503A3E0FF1270F4E4901505F0A3F09069
:106581001503E0FEA3E0FFA3E0FCA3E0FDC39FEC45
:106591009E501F749F2DF582E43414F583E0FF12A1
:1065A10070F4901506E004F07006901505E004F013
:0565B10080CD027130F5
:106FBD001271267FF41270F4E4FF1270F47F021246
:0F6FCD0070F47F061270F47F081270F4027130B6
:10705D001271267FF51270F4E4FF1270F4E4FF1242
:05706D0070F402713017
:106FDC001249FC126FBD124C9C126165126E2A3064
:0F6FEC000F0512475380057F0412688C02705DF9
:106F7D003020FDC2207B017A14794A126903EF306B
:106F8D00E5EED201E4901450F0C20212375980E0C0
:10635A00D2003020FDC2207B017A14794A126903E7
:10636A0090144BEFF0A3E0B4011190144BE030E528
:10637A00E112678D90144CEFF080D790144BE03007
:10638A00E44E90144AE0FF120B4390144DEFF07064
:10639A0007127142D201800C90144DE0B4010A1226
:1063AA000016C20112709B80A990144DE0B4020A33
:1063BA0030129F12000E7F04801090144DE0640387
:1063CA00709030128D12000E7F0112643C02635CE1
:1063DA0090144BE020E50302635C90144AE06015D8
:1063EA00126431D202123759EF703412000E7F0153
:1063FA0012643C802A12001E5017300014D20190F9
:10640A0014507403F0C202123759C200C2051200B6
:10641A000612643190144AE024FF9202123759D2CC
:07642A000512000602635C8D
:1064310012001E9201E4901450F02212715D90142A
:056441004C7401F02283
:0D710200126FDC301703026F7D12635A22FA
:106F9D0000010002000400080010002000400080E5
:106FAD0001000200040008001000200040008000D5
:10516E0090144BE090144A75F010A4FFE09015CF08
:10517E007C002FFFEC35F0FEEF25E0FFEE33FEE076
:10518E00FCA3E02FF582EC3EF58322FEEF25E0FF37
:10519E00EE33FE9016B1E0FAA3E02FF582EA3EF56B
:1051AE0083ECF0A3EDF090144DE0FCA3E0FD901520
:1051BE00CFE0FAA3E02FF582EA3EF583ECF0A3ED03
:1051CE00F022901452E02490FFE43401FEEF25E02B
:1051DE00FFEE33FE22F090167CE0FCA3E0FDC3EF61
:1051EE009DFFEE9C90145EF0A3EFF090145EE0FE37
:1051FE00A3E0FF22E0FCA3E0FD9016B1E0FAA3E0ED
:10520E002FF582EA3EF5832290153AE0FEA3E0AA3E
:10521E0006F97B0122FCE975F010A4FFE07A002F5D
:10522E00FF22E0FCA3C3E0FD9FEE6480F8EC6480F7
:10523E00982290144BE075F010A4FF90144AE07C75
:10524E00002FFFEC35F02290166CE0FEA3E0FFC3BA
:10525E002290144BE004F022901608E0FEA3E0F535
:10526E00828E83E022E0FEA3E0FF901679E0FD7CC3
:10527E0000023058901663E0FF90144BE02275F058
:10528E0010901452E0A4FF901451E02290144AE0C2
:10529E00FFD3950D2290166FE090144BF022E0FE96
:1052AE00A3E0FF901451E02FFD901450E03E22E059
:1052BE00FFA3E090145CCFF0A3EFF0901450E02227
:1052CE00901668E0FEA3E0FF90145422E0FDA3E0E8
:1052DE00901450CDF0A3EDF09016B12290144BE047
:1052EE00D3950922E0FDA3E090144DCDF0A3EDF08F
:1052FE009015CF22C390145DE09FFB90145CE09E4E
:10530E00FA22C390145DE09FFD90145CE09EFC2297
:10531E0090144FE004F02290145EE4F0A322901457
:10532E004BE50CF02290144AE50AF02290144AE064
:10533E0004F022901679E090166EF090144F2290A1
:10534E00144EE09FFD90144DE09E22ED25E0FFEC03
:10535E0033FE9015CF2290145E74FFF0A374F6F016
:10536E0022F0901666E0FF22901663E0FF90144F35
:10537E00E022EEF0A3EFF0901452E022D3EF940A65
:10538E00EE6480948022D3EF9401EE6480948022A8
:0A539E009FEE6480F8EA6480982214
:0C6A4E00901450EFF0901662E06F605B57
:106A5A0078517C147D017BFF7A6F799D7E007F20BF
:106A6A00122F1E901450E0FD25E02451F582E434E3
:106A7A0014F583E0FFA3E09016ABCFF0A3EFF0E4A8
:106A8A00A3F0A3F0901540125219126E57901450A9
:106A9A00E0901662F09015D51252197D01126E57C8
:0B6AAA009015D5125219E4FD126E5732
:016AB50022BE
:106E2A009016B974C0F0A3E4F09016B37419F0A3E5
:106E3A007401F09016B1741CF0A37441F0E490163A
:0D6E4A00A6F09016B7F0A312536F026A4E27
:05000E00E4FF026A4E50
:050016007F0F026A4E9D
:08714200901666E0FF026A4EA0
:106C2A009015F81252193002177DCC126E57901532
:106C3A00EC1252197D05126E571252167D10801BE6
:106C4A00901685E0FD126E579015EC1252199016A7
:0F6C5A0070E0FD126E571252167D11126E572206
:105EDC0020120302601CA21F300101B340030260B8
:105EEC001C200103025F84D20512601F90144FE046
:105EFC00D39509504490144EE50AF090144EE0FFEF
:105F0C00D3950D502EEF640F602190144FE0901438
:105F1C004E125175C083C082125202125258ED9F1C
:105F2C00FFEC9ED082D083F0A3EFF090144EE004EF
:105F3C00F080C812531E025EF82015030260119007
:105F4C00166FE090144FF0125376FED39F4003026D
:105F5C006011EE1251D49015CF12518DC083C082B6
:105F6C00125202125258ED9FFFEC9ED082D083F059
:105F7C00A3EFF012531E80CFC20512601F90144F76
:105F8C00E0D39509504C90144EE50AF090144EE075
:105F9C00FFD3950D5036EF640F602890144FE0F945
:105FAC0075F010A4FF90144E12517A1252DA12515D
:105FBC008D1252AC90144E125223EA35F01251DA73
:105FCC001251BC90144EE004F0025F9812531E0262
:105FDC005F8930153090166FE090144FF0125376A5
:105FEC00F9D39F5020E91251D49015CF12518D1234
:105FFC0052DA12518D1252ACFCE91251D41251BC2E
:10600C0012531E80D8A2019202126C2AA201921F76
:03601C00026CE42F
:0A601F00126FFB90144FE50CF02205
:103759009014537401F0E4901456F0A3F0A3F0A36D
:10376900F0A37404F0A3E4F0200106126CE4023A19
:10377900F7901452E50CF0901452E0D395094003E8
:10378900023918E4901458F0A3F0901451E50AF0A6
:10379900901451E0FFD3950D40030238C4EF640F34
:1037A90070030238BB75F00F12528FFB7A002FFF9E
:1037B900EA35F01251DA9016B912518DE0FFA3E003
:1037C900901454CFF0A3EFF0901454E0FEA3E0FF5F
:1037D900901459E02FF0901458E03E1251E39016DE
:1037E9007A12527B90145E12538075F010A42BFD4F
:1037F900EA35F0FC12535912520A1252BD601412E2
:1038090051F912530212535912518DEAF0A3EBF0F8
:10381900023898901454E07002A3E0701990145083
:10382900E06403701112528C9016B312517EE0FCC1
:10383900A3E0FD02389530021F1251F9C394F6EE48
:103849006480947F5005125364802E12538A402954
:10385900125325740AF080211251F9C394FFEE64C2
:1038690080947F500A74FF90145EF0A3F0800A12CE
:103879005394400512532504F01251F912531012B2
:10388900528C7A002FFFEA35F01251DA1251BC90AE
:103899001450E0D39400401A1252CEE0FCA3D31284
:1038A90052345009125255ED1252365005E4901413
:1038B90053F0901451E004F0023799901458E0FE47
:1038C900A3E0FF7C007D0F123058901458EEF0A34E
:1038D900EFF09014561252305008A3E0FEA3E0FF17
:1038E9008004AE04AF05901456EEF0A3EFF09014E7
:1038F9005AE0FEA3E0FF9014581252305006AE046D
:10390900AF05800090145A12538004F0023780A248
:1039190015B0134003023A2790166FE0901452F045
:10392900901663E0FF901452E0FED39F4003023AE1
:1039390027EEFB7A002477FFEA1251D89016B912C4
:10394900518D1252D1EEF0A3EF1251E3901680126D
:10395900527B90145EEEF0A3EFF0EB2490FFEA1295
:1039690051D89015CFE0FCA3E0FD1251911252BD40
:10397900F9D3940040311252CEE0FAA3E0FBD312FE
:10398900539E5009125255EB12539E5005E4901460
:1039990053F01251F91253021251D0ED125191EA1A
:1039A900F0A3EBF0023A1E901454E07002A3E07009
:1039B90015E9B403111251D09016B312518DE0FCE0
:1039C900A3E0FD023A1B30021F1251F9C394F6EE2F
:1039D9006480947F5005125364802E12538A4029C3
:1039E900125325740AF080211251F9C394FFEE6431
:1039F90080947F500A74FF90145EF0A3F0800A123D
:103A09005394400512532504F01251F91253101220
:103A190051D01251BC901452E004F002392990148B
:103A290050E064026003126CE490145A12525890E8
:103A39001457E09FFD901456E09EFC9016B7E0FAEB
:103A4900A3E0FB25E0FFEA33FEED2FFFEC3ECF2B91
:103A5900CF3AFEEF7802CEA2E713CE13D8F8FF9043
:103A690016B7EEF0A3EFF03002749016B6E024FA20
:103A7900FF9016B5E034FFFE7C007D0A122FF1900D
:103A890016AF1252305018C3ED94C8EC648094807C
:103A9900502CE0240AF09016AFE03400F0801FD3D8
:103AA9009016B0E09FEE6480F89016AFE0648098BD
:103AB900400CA3E024F6F09016AFE034FFF0901626
:103AC900B7E0FEA3E0FF9016B5EEF0A3EFF0D394B4
:103AD90006EE6480948050037F00227F01229016B5
:103AE900B5E4F0A37406F0E49016AFF0A3F09014D7
:033AF90053E0FF98
:013AFC0022A7
:10475300301805E4FF126A4E3012081252167D110A
:10476300126E57E490144FF09016A5F090166EE079
:1047730070030249D63020F4C2207B017A14794CAD
:10478300126903EF30E5E590166EE014F090144FD4
:10479300E014607914700302483F14700302493631
:1047A300240360030249D012532C1252EA502512FB
:1047B300533312529A5018EF640F600E12516EE089
:1047C300FCA3E0FD9016B31251BF12533A80E312DB
:1047D300525F80D63015251252A3125282FED39F08
:1047E300501AEE1251D49015CF12518DE0FCA3E074
:1047F300FD9016B31251BF12525F80DE90144F74B6
:1048030001F090166EE0FF25E0F00249D01249EE68
:10481300EF6005E490166EF090166EE060030249B7
:10482300D07E037F40FD9016B1E0FAA3E0F97B014F
:104833001233411253417402F00249D01249EE126D
:10484300532C1252EA502312533312529A5016EF3A
:10485300640F600C12516E125202EC8DF012308E06
:1048630012533A80E512525F80D83015231252A3B7
:10487300125282FED39F5018EE1251D49015CF12CC
:10488300518D125202EC8DF012308E12525F80E085
:1048930090166EE060030249D012532C1252EA5074
:1048A3004412533312529A5036EF640F602B125254
:1048B300401251DA9016B112518DC083C082125248
:1048C30073D082D083EEF0A3EFF01252401251DA8C
:1048D3009016B112518D1251B712533A0248A712D2
:1048E300525F02489F30153A1252A3125282FED3EE
:1048F3009F502FEE1251D49016B112518DC083C028
:1049030082125273D082D083EEF0A3EFF090144B57
:104913001251D39016B112518D1251B712525F0238
:1049230048EE2012030249D01253417403F0D2021D
:104933000249CDD2019014507402F0C202123759C9
:1049430090166EE060030249D012532C1252EA50C3
:104953004212533312529A5034EF640F6029901469
:104963004BE0F91252441251DA9016B112518D12E2
:1049730052F212518D12525812534D90144A125240
:1049830023EA35F012519912533A02495712525FF2
:1049930002494F3015321252A3125282F9D39F505B
:1049A30027E91251D49016B112518D1252F21251BD
:1049B3008D12525812534DFCE92490FFE434011236
:1049C300519912525F02499CC202126C2A126CE482
:1049D30002476F301814125266547FF09015D112AB
:0A49E300526954EF12536F126A4E2E
:0F49ED0022D2019014507402F0C20212375922E4
:05688C0090144AEFF03A
:10689100301805E4FF126A4EE49016A5F0C21ED22C
:1068A1000030121590153A125269B4100CD21F7FA4
:1068B1000612715DD205126FFB90144AE06034300C
:1068C10020F7C2207B017A14794B126903EF30E57E
:1068D100E890144AE014F0300002C200D201901492
:1068E100507401F0C202123759EF60CDE490144A9E
:1068F100F080C630180B125266547F12536F126A21
:016901004E47
:016902002272
:1053A80090148BE0F8A3E0F9A3E0FAA3E02FFFEA5A
:1053B8003EFEE93DFDE83CFCE47B04FAF9F81231D5
:1053C800A0E47B0AFAF9F8126B6690149D1232E792
:1053D80090148BE0F8A3E0F9A3E0FAA3E0FB9014A3
:1053E80099E0FCA3E0FDA3E0FEA3E0C39BFFEE9AD7
:1053F800FEED99FDEC98FCA3E0F8A3E0F9A3E0FA30
:10540800A3E02FFFEA3EFEE93DFDE83C901495FC41
:10541800E0F8A3E0F9A3E0FAA3E02290147CE0FF0F
:105428003395E0FE7C007D0B122FF19016BDE0FB5A
:10543800A3E0FAA3E02FF9EA3EFA22FBEF2BFFEEF6
:105448003AFEED39FDEC38FC9014951232E79014D1
:1054580087E0FCA3E0FDA3E0FEA3E0FFA31232E790
:1054680090148BE0FCA3E0FDA3E0FEA3E0FF901402
:10547800991232E7901487E0FCA3E0FDA3E0FEA3B5
:10548800E022FB90148FE0FEA3E0FFEE3395E0FDF1
:10549800FCEB9014872FFFEA3EFEE93DFDE83CFC5B
:1054A8000232E790147BE0FF3395E0FE7C007D0636
:1054B800122FF19016C0222438FFEE34FFFEED348F
:1054C800FFFDEC34FFFCE47BFFFAF9F81231A0E4AD
:1054D8007B487A26F9F8126B669014911232E77FAE
:1054E80001E4FEFDFC90149122E47A01F9F81232ED
:1054F8002B90149D1232E790149DA3A3E0FEA3E025
:1055080022C39BFFEE9AFEED99FDEC9822900005D0
:10551800122F5D90147AFFD3E0FEEF6480F8EE64FA
:10552800809822FD3395E0FCEF2DFFEE3CFEEF2541
:10553800E0FFEE33FE9016BBE0FCA3E02FF582EC13
:105548003EF583E022FB126B66901481EEF0A3EF28
:10555800F0901481E0FEA3E0FF901480E02FFF900C
:10556800147FE03EFE22FC7BF0E4FAF9F80231A059
:10557800FBEF2BFFEE3AFEED39FDEC38FC90149969
:10558800229000031230CFFFAEF0221230CFAEF0DF
:10559800FBAA06EA3395E0F9F8C322FCE47B907A8B
:1055A80001F9F80231A0FF3395E0FE7D0F022FF1DB
:1055B80090148FF0A3EFF022E0F8A3A3A3E0D302A6
:0F55C80032BD901479E004F022FF78010232D353
:106DC60090146CA3E0FAA3E0FF9016BBEAF0A3EFE1
:106DD600F090146F12541B9016C0C9F0A3EAF0A3EA
:106DE600E9F090147212541B9016BDC9F0A3EAF094
:046DF600A3E9F022FB
:0100300022AD
:1027B100901474EFF0A3ECF0A3EDF0A3EAF0A3EB17
:0127C100F027
:1027C200E490147BF0A3F0901474E0FF90147BC3A8
:1027D2001255204003022E24EE1254AF12543690AA
:1027E2000003122F5DFB90147EF09014951232F3C9
:1027F200000000009014991232F3000000009014BF
:102802008B1232F3000000009014831232F30000A6
:102812000000E49014A1F0A3F090147AEBF01254AB
:10282200AB12543612551540030229149014871224
:1028320032F300000000900002122F5D901479F034
:102842001254AB125436900004122F5DFF9014798B
:10285200E0FBD3EF6480F8EB648098504EA3E01263
:1028620055AEEB12552BFEA3E0FFEE1255B8C39006
:102872001478E09F901477E09E50069014A2E00432
:10288200F0901475E0FEA3E0FFD3901490E09F90C7
:10289200148FE09E40069014A1E004F09014871279
:1028A200541812548A1255CA02284290147AE0B57A
:1028B2000914901487125418FBC00012547C12554C
:1028C200D1D00012549990148312547FFFA3125452
:1028D20018FBD31232BD401E90147AE090147EF0A1
:1028E20090149512547FFF90148B12541812544373
:1028F200FF901483801090149912547FFF901487D4
:102902001254181255781232E790147AE004F00249
:10291200282090149512547FFFA3125418901491FA
:1029220012549D90147EE0FD3395E0FCC3ED950CAE
:10293200FFEC9400FE7C007D28122FF1A3EEF0A3A1
:10294200EFF090148B125418FB90149912547F12CA
:102952005509125414FBC31232BD501390148B123A
:102962005418FB90149912547F125509FC80079059
:10297200149512547FFF1253A8FBC3EF12550AFCA1
:1029820078011232D37B2812557190149D1254187B
:1029920012554DC007C006125423900003D0E0D058
:1029A200F0123173900003E475F00F1231071255E3
:1029B20089D39490EE648094814025EE3395E0FDB6
:1029C200FCEF2470FFEE34FEFEED34FFFDEC34FF2D
:1029D2001255A37B881254F12490FFEE3401802714
:1029E20012542390000312559374909BFF74019A22
:1029F200FEE499FDE4981255A37B721254F1FFC3D1
:102A020074909FFF74019EFEC007C006125423906B
:102A12000003D0E0D0F0123173125423125589C34F
:102A2200EE648094805008900003E4F5F08013D3A4
:102A3200EF9420EE64809483400B9000037403753E
:102A4200F0201231731254AB125436900002122F3E
:102A52005DFB90147DF09014951232F3000000009B
:102A62009014991232F30000000090148B1232F38A
:102A7200000000009014831232F300000000901452
:102A820079EBF01254AB125436900004122F5D9081
:102A9200147912551E4003022B5E9014871232F3F2
:102AA20000000000900003122F5D90147AF012547F
:102AB200AB1254361255155024EE1255AE901479BD
:102AC200E012552BFFA3E0CF1255B8901487125491
:102AD2001812548A90147AE004F0022AB090147901
:102AE200E0B50A14901487125418FBC00012547CEB
:102AF2001255D1D000125499901479E0B50D14906A
:102B02001487125418FBC00012547C1255D1D00005
:102B120012549990148312547FFFA3125418FBD3BA
:102B22001232BD401E901479E090147DF0901495FD
:102B320012547FFF90148B125418125443FF9014B6
:102B420083801090149912547FFF901487125418A6
:102B52001255781232E71255CA022A8590147DE086
:102B6200FD3395E0FCC3ED950AFFEC9400FEEF788F
:102B720005C333CE33CED8F9FF90147FEEF0A3EF26
:102B8200F090148B125418FB90149912547F125522
:102B920009125414FBC31232BD501390148B1254F9
:102BA20018FB90149912547F125509FC8007901457
:102BB2009512547FFF1253A8FBC3EF12550AFC78FB
:102BC200011232D3E47B2012557290149D125418D4
:102BD20012554DC007C006125423900001D0E0D018
:102BE200F0123173900001E475F00F12310790007A
:102BF2000112558CD394F0EE648094804027EE331A
:102C020095E0FDFCEF2410FFEE34FFFEED34FFFDF6
:102C1200EC34FF12556EE47BE1FA1254F424F0FF17
:102C2200E43E022C7112542390000112559374F069
:102C32009BFFE49AFEE499FDE49812556EC006C02B
:102C42000790147EE0C3950CC313FFC3E49FFFE417
:102C52009400FEC374D79FFFE49EAB07FAE4F9F831
:102C6200D007D0061254F6FFC374F09FFFE49EFE15
:102C7200C007C006125423900001D0E0D0F01231F8
:102C82007312542390000112558CC3EE6480948019
:102C92005008900001E4F5F08013D3EF94E0EE6465
:102CA200809481400B900001740175F0E012317341
:102CB20090147CE0FF9016BDE0FBA3E0FAA3E0F9DC
:102CC200EFFD3395E08D82F583740B123324EF12FE
:102CD2002FCF90149512547FFFA31254182FFFEA9E
:102CE2003EFEE93DFDE83CFC9014911232E790145F
:102CF200A1E0D3940A4011D3901476E094FA901490
:102D020075E094004002D21B9014A2E075F0C8A4B2
:102D1200FFAEF0E4FCFD901491125418FBD3123272
:102D2200BD40517FC81254E91255C0500A90149107
:102D32001232F3000000C8E47F107E27FD90149148
:102D4200125417FBD31232BD400A9014911232F37F
:102D52000000271090149112547F1254BF1254187D
:102D6200FBC31232BD500A9014911232F3000000DC
:102D720001022DF390147DE0FF650A6014E50A6FED
:102D8200600FA3E0FF650C6008E5096F6003022E87
:102D92001BE47F461254EA125418FBD31232BD4090
:102DA20078E47FC81254EA1255C0500A9014911266
:102DB20032F3000000C8E47F107E27FDFC901491DE
:102DC200125418FBD31232BD400A9014911232F3FE
:102DD2000000271090149112547F1254BF125418FD
:102DE200FBC31232BD500A9014911232F30000005C
:102DF20001125423900008E4122FCF90149112551F
:102E020002FF8FF0EE9000051231739000077401FB
:102E1200122FCF90147CE004F090147BE004F002B7
:102E220027C9901474E0901479F0901479E0FFC3EC
:102E3200648094885010EF125428900007E4122FF7
:0B2E4200CF1255CA80E490147CE0FF22
:012E4D002262
:106D8F005265676973746572205365742042756626
:106D9F00666572204F766572666C616720212100EF
:106DAF004E6F76203237203230313220202031376B
:076DBF003A32373A3531008A
:10644600901670E0FF9015ECE0FCA3E0F5828C83DB
:10645600EFF0901674E0901606FFE0FCA3E0F582DC
:106466008C83EFF02290160CE0FEA3E0F5828E837B
:106476002275F00BA4901474FFE0FBA3E0FAA3E0EE
:1064860022A3F0A37440F0A3228F828E83E4F0222D
:1064960090147FE004F02290147EE004F022EF25B1
:1064A600E025E02460F582E43415F583221230CF2E
:1064B600FFAEF0C39401EE648094802225E025E0CF
:1064C600245DF582E43415F58322EBF0A3EAF0A30C
:1064D600E9F022F09015F8E0FEA3E0AA06F97B01A8
:1064E60022E0FEA3E0FFF5828E837401F0221230D3
:1064F600CFFF90147E22FF90147DF0A322122F5D11
:046506005401C42256
:10708700126446901666E090154012645F12646BB6
:047097007480F022EF
:07714A0012646B7401F022D6
:106CE4003014081264467FD0127151E4FF9015DB12
:106CF400E0FEEFC39E50141264A4E0FEEF1264C2DF
:106D040012647FF9EE122FBD0F80E2E49015DBF0E0
:0A6D140090153E1264E70012648F30
:016D1E002252
:0B711B009015F21264E70012648F224E
:106E57009015DBE0FF1264C21264D01264A4EDF057
:106E67009015DBE0C394135004E004F0227BFF7A13
:076E77006D798F12650A22FC
:106FFB0030050C90168174011264D97DCC800CE4A1
:0F700B009016811264D9901685E0FD126E5722FF
:10709B00301003C2212220010AC221901667E09012
:0470AB001542F02278
:10701A00201703126CE49015EA12646EE0FD30E763
:06702A0003127087AF05A0
:01703000223D
:066903009014501264D054
:1069090012701A901453EFF030E506E49016AD803A
:106919002A9016AEE004F070069016ADE004F090EF
:1069290016ACE024FFFF9016ABE034FFFEC39016CF
:10693900AEE09F9016ADE09E4004E4F0A3F0201075
:1069490018202115901542E0D3648094805004D218
:10695900218006901542E014F0901681E0901450C1
:0D69690012647EF9EF122FBD901453E0FF71
:0169760022FE
:0657C3009014741264D082
:1057C900901478E0FFC454F0FEED549F4E90E00F22
:1057D900F090147E74E0F0A37410F0EDD39F4004B0
:1057E900AF058005901478E0FF90147CEFF0E49009
:1057F900147BF090147CE0FF90147BE0FEC39F4083
:1058090003025993EE1264772FF9EA35F0FA900002
:10581900011264B35009900001E475F0018013C3CB
:10582900EF94E0EE64809481400B9000017401755F
:10583900F0DF1231739000031264B3500990000332
:10584900E475F0018013C3EF9420EE6480948340E3
:105859000B900003740375F01F12317390147BE0F1
:105869001264772FF9EA35F0FA900009122F5D5486
:105879000FC454F0FF90147DF0901474A3E0FAA3C0
:10588900E0F990147BE075F00BA4F58285F08312A2
:105899002F5D540F4F1264FC1264601264967003FA
:1058A90012649D90147BE075F00BA429F9EA35F098
:1058B900FA90000A126503333354C0FF90147DF047
:1058C9009000071265033354E04FFF90147DF09068
:1058D900000812650354F04F90147DF0E0FF901416
:1058E90079A3E0540FFEEF4E1264FC126460126457
:1058F90096700312649D9000031230CFE5F05407AF
:10590900FF90147DEFF0FD9000011230CFE5F054C7
:1059190007FEE47805CEA2E713CE13D8F84DFF9021
:10592900147DF0FD9000051230CFE5F05403FEE43C
:105939007802CEC313CE13D8F94D1264FC126460F9
:10594900126496700312649D9000011264F412644B
:1059590060126496700312649D9000031264F4123D
:105969006460126496700312649D9000051264F4D9
:1059790012646090147FE0240BF090147EE03400F0
:10598900F090147BE004F00257FC90147CE0D3946F
:0659990000400312711B27
:01599F0022E5
:0300260002711B49
:106BAA007F107EE090E00F74F1F08F828E8374067E
:106BBA00F00FBF00010E12648F0FBF00010E1264A6
:106BCA008F0FBF00010E12648F0FBF00010E1264F7
:106BDA008F0FBF00010E8F828E837401F002711B2A
:1049FC009015CF74A0F0A3E4F09015EA74C3F0A363
:104A0C00740CF09015B774C0F0A3E4F090160C740D
:104A1C00E0F0A37401F090153E74E0F0A37402F082
:104A2C009015F274E0F0A37403F09015FC7440F050
:104A3C00A37402F09015D37440F0A37403F0901596
:104A4C00E47440F0A37404F090160A7440F0A3745C
:104A5C0005F09015EE7440F0A37406F09015BB743D
:104A6C0040F0A37409F09015F87440F0A3740AF0A8
:104A7C009015EC7440F0A37411F09016067440F08D
:104A8C00A37412F09015B17440F0A37413F0901548
:104A9C00DC7440F0A37415F09015CD7440F0A37441
:104AAC0017F090155B7440F0A37418F090154774D0
:104ABC0040F0A37420F09015517440F0A37421F0D1
:104ACC0090154D7440F0A37424F09015D17440F0FF
:104ADC00A37430F09015557440F0A37431F0901518
:104AEC00597440F0A37432F09015577440F0A374CD
:104AFC0033F09015B57440F0A37434F09015E07455
:104B0C0040F0A37435F09015407440F0A37436F067
:104B1C009015BD7440F0A37437F07440901600F0FB
:104B2C00A3F09015D9F0A304F09015D714F0A3744A
:104B3C0042F09015B37440F0A37443F09015C57413
:104B4C0040F0A37444F09015E67440F0A37445F063
:104B5C009016047440F0A37446F09016027440F062
:104B6C00A37447F090154F7440F0A37448F090155F
:104B7C00C17440F07449126487744AF09015C7747C
:104B8C0040F0744B126487744C126488744DF0902E
:104B9C0015BF7440F0A3744EF090153A7440F0A316
:104BAC00744F1264887450F090154B7440F0A374D9
:104BBC0051F09015537440F0A37452F09015AD74ED
:104BCC0040F0A374571264887458F090160874401F
:104BDC00F0A374C0F09015387440F0A374C1F09039
:104BEC0015FA7440F0A374C2F09015FE7440F0A353
:104BFC0074C5F09015F67440F0A374C6F09015D5FA
:104C0C007440F0A374C8F09015B97440F0A374C943
:104C1C00F09015E27440F0A374CBF09015497440F9
:104C2C00F0A374C3F09015F07440F0A374CDF09021
:104C3C0015F47440F0A374CEF09015E87440F0A312
:104C4C0074D0F09015DE7440F0A374D9F090154335
:104C5C007440F0A374DB12648874C4F09015F012E5
:104C6C00646E7406F09015F412646E7408F0126B96
:104C7C00AA1259A012713A7BFF7A6D79AF12650AAC
:104C8C00E49015DBF0901542F0C220C22102714A6B
:106BEA00010203040506080A0C0E101418202830A6
:106BFA0001020304050608090A0C0E1014182028BD
:106C0A0000320064009600B400D200F0010E012C9C
:106C1A00014A0168018601A401C201F4022603E8BF
:106D5700F0901557E0FEA3E0F5828E83E0227D01D7
:106D67007BFF7E007F10022F1EFF54F0C4540FF0EC
:106D7700EF540F227A0025E0FFEA33FEEF227C0072
:086D8700122FF1AA06AB07224E
:104C9C00784A7C147A6B79EA126D65785A7C147AAE
:104CAC006B79FA126D65786A7C147D017BFF7A6CE6
:104CBC00790A7E007F20122F1E9015FC126D5BFF6F
:104CCC0030E503D38001C39215EF30E403D38001A8
:104CDC00C392169015D3126D5B30E403D38001C3DD
:104CEC0092179015E4126D5BFFC4540F14F50AEF84
:104CFC00540F14F50DC3950A04F50890160A126D9D
:104D0C005BFFC4540FF50CEF540F240AF509C3953F
:104D1C000C04F50B9015BB126D5B6003C38001D3C3
:104D2C0092109015F8126D5B901685F0E09016714C
:104D3C00126D70901665F0901549126D5B6003D37F
:104D4C008001C392149015EC126D5B901670F0906C
:104D5C001606126D5B901674F0901555126D5BFE75
:104D6C00901559E0FCA3E0F5828C83E0FDEDFF90FB
:104D7C001683EEF0A3EF126D5775F002A4FF901698
:104D8C007CE5F0F0A3EFF0901540126D5B90166689
:104D9C00F0901662F0901604126D5B901664F0E0C1
:104DAC00FFC4540F244AF582E43414F583E09016C2
:104DBC007AF0FDEF540F90166AF09015EE126D5BC1
:104DCC0090166F126D70901663F0901602126D5B58
:104DDC00FFC4540F245AF582E43414F583E0901682
:104DEC0080F0EF540F25E0246AF582E43414F58347
:104DFC00E0FFA3E0901672CFF0A3EFF090154F12E6
:104E0C006D5B5407901678F09015B5126D5BF954E4
:104E1C000C1313543F126D7B2404FFE43EFE126D01
:104E2C008590167DE02BFE90167CE03A90167EF075
:104E3C00A3CEF0E95402126D7B2402FFE43EFE90F7
:104E4C00167AE0F9FD122FF1901608126D5BFF3007
:104E5C00E703D38001C3920FEF540F90166EF0D37B
:104E6C0094004004D2188002C21890166EE025E01F
:104E7C00F0901679F0901608126D5B5470C4540FB4
:104E8C00FBE9FF7E00AD03126D8590167CE0FCA360
:104E9C00E0FD2BFEEC3A901668F0A3CEF0AE02C308
:104EAC00ED9FFFEC9E90166CF0A3EFF09015D712CF
:104EBC006D5B90167BF09015C5126D5B901677F0BC
:104ECC009015FAE0FEA3E0FFF5828E83E030E70355
:104EDC00D38001C392128F828E83E0FF5470C4542E
:104EEC000F901675F0EF540F25E025E0049016672F
:0C4EFC00126D5790166BF0E4901681F0D8
:014F08002286
:1070D500010001010001FF01FF00FFFF00FF01FFAB
:10419800901483E0FF901482E075F01AA424A2F52D
:1041A80082E5F03412F583E5822FF582E43583F554
:1041B80083E075F027A4FF90129CE0FBA3E0FAA32C
:1041C800E090FFD92FF9EA35F0FAED122FCF9014CD
:1041D80083E0FF901482E075F01AA424A2F582E52A
:1041E800F03412F583E5822FF582E43583F583E018
:1041F80075F027A4FF90129CE0FBA3E0FAA3E02F40
:10420800F9EA35F0FA22901483E0FF901482E07501
:10421800F01AA424A2F582E5F03412F583E5822F82
:10422800F582E43583F5832290FFD9122F5DFD9046
:104238001485E075F027A4FF90129C2290FFDCED16
:10424800122FCF901485E0FF901483E0901482FE23
:10425800E075F01AA424A2F582E5F03412F583E59E
:10426800822290FFDB122F5D901486FF3395E0FECB
:10427800E0FDD39FEE6480F87480982290FFDC12F2
:104288002F5D901483FF3395E0FEE0FDC3EF9D742E
:1042980080F86E982290FFD9122F5DC36480F8EDE4
:1042A80064809822901483E0FFEEFD3395E0FC9043
:1042B80012A275F01AED123335EC75F01AA42583A5
:1042C800227A002FFFEA35F0FEEF25E0FFEE33FEFD
:1042D80090128AE0FAA3E02FF582EA3EF583E02205
:1042E80090FFDC122F5DFF3395E0FE22901289E0EB
:1042F800FF3395E0FE2290FFD9022F5D90FFDB028D
:104308002F5DFFE0FBA3E0FAA3E0C98FF002315470
:10431800EEF0901483E0FE75F01A2290FFDA022F77
:104328005D90FFDC022F5D901483E0FF901482E023
:10433800FE22EDF0A206920790148DE9F090148306
:10434800E0FF90148EF075F01AEE22901492E0259A
:10435800E0F0901491E033F022901494E025E0F01E
:10436800901493E033F022E0FD901488E0F9FB33D9
:1043780095E0FA9012A275F01AEB123335EA229002
:104388001482E0FF75F01AA424A0F582E5F0341237
:10439800F583E5822D22FEEF25E0FFEE33FE229025
:1043A8001429E0FF901488E0FEC3EF6480F8EE64FF
:1043B80080982290FFDD022F5D75F01AA424A1F5E4
:1043C80082E5F03412F583E58222EDF0D2079014ED
:1043D8008DEBF0A3ECF075F01AEE22A3E0FF75F078
:1043E8001AED22E090FFDC022FCFED90FFDC022FC8
:1043F800CFFF901488E0FED36480F8EF64809822A1
:10440800901486E004F022901487E004F022E0FD86
:10441800901487E0FC901486E0FB22A20692079095
:104428001482E090148DF02274FF90FFDD022F8A31
:1044380075F002A429F9EA35F0FA22EF2401FFE425
:104448003EFE9014832275F00FA4FF90148DE02295
:10445800CFF0A3EFF0901428E022901485E0FF90AD
:0E4468001487E022901482E014901488F02251
:1069770078767C147D017BFF7A7079D57E007F1055
:10698700122F1E90146CA3E0FAA3E0FF90128AEA7C
:10699700F0A3EFF090146FE0901429F0901471E0D9
:1069A7009012A1F0901470E0901289F0901472E0A8
:1069B700901428F0901473E0F9A3E0FAA3E0901282
:1069C7009CC9F0A3EAF0A3E9F0788C7C127D017BE7
:0C69D700017A1479767E007F10022F1EDA
:0F70E5007E017F867D007B017A1279A202334102
:1055D7002007030257C290148EE0FD12444EFC12BE
:1055E70042C9FFA3E0901491124458FFEDB5070399
:1055F700124353901429E0B504031243539012A1A8
:10560700E0FF90148DE0B50703124353E4FDEDFF6F
:105617003395E012439E748C2FF58274123EF58306
:10562700E0FC90148DE02CF9748D2FF58274123EF6
:10563700F583E0FF90148EE02FFC9014291242F7B7
:10564700E9FBC312427B50030256E29012A11242B9
:10565700F7D3EB12427B40030256E21242F4ECFB13
:10566700C312427B40759014281242F7D3EB1242C3
:105677007B5068EC75F00FA4FFE91242C9FFA3E065
:10568700901493124458B50403124361901429E00F
:10569700B501031243619012A1E0B5010312436102
:1056A700901493E0FEA3E0FF901491E0FAA3E0FBCF
:1056B700D39FEE6480F8EA648098501FEB6F700206
:1056C700EA6E702090148DE0C3994007A3E09C40D8
:1056D7000A801190148EE0D39C50090DED64086088
:1056E70003025615ED640860030257C290148DE05B
:1056F700FDC00590148F1241F71243BB1244389036
:10570700FFDED0E0122FCF90148EE0FDC005A3126C
:1057170041F71243BB12443890FFDFD0E0122FCF7E
:1057270090148F1241F7740112443290148EE012D4
:10573700444E7C002FFFEC35F012439E90128AE016
:10574700FCA3E02FF582EC3EF583E0FEA3E0FF909B
:10575700129FE0FCA3E0FDD3EF9DEE9C4029901241
:105767009FEEF0A3EFF090148DE0FF90129CE0FB0A
:10577700A3E0FAA3E0F9900025EF122FCF90148E43
:10578700E0900026122FCF901490E0602E90148E98
:10579700E0FF90148DE0FE124217E0FD75F01AEE5F
:1057A700A424A3F582E5F03412124223EDF09014FD
:0B57B7008EE004FDA31241F71243F244
:0157C20022C4
:10158100901474EEF0A3EFF0A3ECF0A3EDF0A3EB55
:07159100F0A3EAF0A3E9F06A
:10159800E4901484F0A3F01270E5E490129FF0A395
:1015A800F0901489F0A3F0A3F0A3F0901289E090D2
:1015B8001483F09014281242F7901483E012427AB0
:1015C8004003021E4C901429E0901482F09012A15E
:1015D800E09014821242734003021E43A3E0FC759C
:1015E800F00FA4FFED1242C9FEA3E0FFD39400EE72
:1015F800648094805003021E3090148CE004F070D4
:101608000690148BE004F0901428E0B5040312430C
:101618009F901429E0FD901482E0FCB50503124365
:101628009F9012A1E0B5040312439FC3901475E084
:101638009F901474E09E4003021E2890148AE004D0
:10164800F07006901489E004F0C3901477E09F903E
:101658001476E09E5004D2068002C206901485E0FB
:10166800FF7003021D07901289E0FD3395E0FC909E
:101678001483E0FED39DEC12427D5003021CD190EE
:101688001482E0FD1243C12E124228E0FE700302CC
:10169800197C901483E0FC75F01AED12425C2C1250
:1016A8004228124318ED12425C2E124228E0FE6FC7
:1016B80070030219602005030218F5901485E0FFF5
:1016C800EED39F50030217E5EE1241F81243239020
:1016D8001487F01241D61242E8901487E012427A39
:1016E80050341242FE901486F01241D612426A50CB
:1016F8001F1243E312421AE06010124462901486EB
:101708001242572E124228121E8B1244080216F15A
:1017180012440F0216DB1241D61242301242021254
:10172800429D500812420E12423A8005124237E09A
:10173800FB1242021242FEFD9014851241B990FF3D
:10174800DB124233124202124304D31242A440086D
:1017580012420E12423A8005124237E0FB12420250
:10176800124304FD124237E0FBA3E0FAA3E090FF26
:10177800DB1241CC90FFDA12423312420290FFDAB8
:101788001242A0500812420E12423A800512423705
:10179800E0FB124202124323FD9014851241F79098
:1017A800FFDA1241D290FFDC124233124202124396
:1017B80029D31242A4400812420E12423A8005125E
:1017C8004237E0FB124202124329FD901485124170
:1017D800F71242442E124228EFF002195290148553
:1017E8001241F7124323901487F09014851241F7A1
:1017F8001242E8901487E012427A50401242FE905A
:101808001486F09014851241F712426A5028124348
:10181800E312421AE0601912432F124217124416BB
:101828001242592C1242281243D212421A121E7A1C
:1018380012440802180B12440F0217F21241D61272
:10184800423012420212429D500812420E12423A8F
:101858008005124237E0FB1242021242FEFD12419D
:101868009890FFDB124233124202124304D3124211
:10187800A4400812420E12423A8005124237E0FB99
:10188800124202124304FD1241D690FFDB1241D2EC
:1018980090FFDA12423312420290FFDA1242A0504D
:1018A8000812420E12423A8005124237E0FB1242F9
:1018B80002124323FD1241D690FFDA1241D290FF63
:1018C800DC124233124202124329D31242A44008C6
:1018D80012420E12423A8005124237E0FB124202CF
:1018E800124329FD1241D61243F202194A12446CDE
:1018F8001243A7404D1242AC124223E06044124109
:10190800DB1242FE1243F94007E090FFD9122FCFB5
:101918001242AC1241EB1243BBD394004003124471
:101928003012432F12421712436F1242C21242233F
:1019380012433A12421A121E7A901488E014F002E6
:1019480018F812420EE0901485F0901484E0D394B5
:1019580000400EE014F0800912424B2E124228EF8C
:10196800F09014851241F712428450031243EBD2CF
:1019780005021CF3901481E07003021CB41242F4B7
:101988001244431242785003021C961243871242B3
:1019980028E0FE7003021C7B75F01AEF12425C2DE2
:1019A800124228124318EF12425C2E124228E0FF1E
:1019B800901485E0FEEF6E7003021C5F20050302A1
:1019C8001BF4EFD39E5003021AE4EF1241F81243BE
:1019D80023901487F01241D61242E8901487E0123F
:1019E800427A50351242FE901486F01241D61242C5
:1019F8006A50201243E312421AE06011124462FE58
:101A08009014861242582E124228121E8B12440835
:101A18000219F312440F0219DD1241D61242301294
:101A2800420212429D500812420E12423A8005129A
:101A38004237E0FB1242021242FEFD901485124129
:101A4800B990FFDB124233124202124304D312420E
:101A5800A4400812420E12423A8005124237E0FBB7
:101A6800124202124304FD9014851241F790FFDBE5
:101A78001241D290FFDA12423312420290FFDA1278
:101A880042A0500812420E12423A8005124237E034
:101A9800FB124202124323FD9014851241F790FF76
:101AA800DA1241D290FFDC12423312420212432969
:101AB800D31242A4400812420E12423A8005124242
:101AC80037E0FB124202124329FD9014851241F7B8
:101AD8001242442E124228EFF0021C519014851233
:101AE80041F7124323901487F09014851241F7129E
:101AF80042E8901487E012427A50401242FE901455
:101B080086F09014851241F712426A50281243E376
:101B180012421AE0601912432F1242171244161289
:101B280042592C1242281243D212421A121EA612ED
:101B38004408021B0A12440F021AF11241D612423B
:101B48003012420212429D500812420E12423A804E
:101B580005124237E0FB1242021242FEFD12419882
:101B680090FFDB124233124202124304D31242A402
:101B7800400812420E12423A8005124237E0FB1228
:101B88004202124304FD1241D690FFDB1241D2906B
:101B9800FFDA12423312420290FFDA1242A05008D2
:101BA80012420E12423A8005124237E0FB124202FC
:101BB800124323FD1241D690FFDA1241D290FFDC86
:101BC800124233124202124329D31242A44008128D
:101BD800420E12423A8005124237E0FB12420212CC
:101BE8004329FD1241D61243F2021C4912446C12D9
:101BF80043A7404D1242AC124223E060441241DB3D
:101C08001242FE1243F94007E090FFD9122FCF127B
:101C180042AC1241EB1243BBD39400400312443050
:101C280012432F12421712436F1242C2124223125A
:101C3800433A12421A121EA6901488E014F0021BAE
:101C4800F712420EE0901485F0901484E0D39400CB
:101C5800400EE014F0800912424B2E124228EFF099
:101C68009014851241F712428450031243EBD205B7
:101C7800021CF312424B2E124228EFF0EF1241F8E9
:101C880012430490148212428D5060021CEC1242DE
:101C98004B2E124228EFF0EF1241F890FFDB124270
:101CA800EB9014821242925042021CEC12424B2ECC
:101CB800124228EFF0EF1241F890FFDB1242EB904E
:101CC80014821242925024801B12424B2E12422838
:101CD800EFF0EF1241F890FFDB1242EB9014821202
:101CE80042925007E090FFDB122FCF9014851241EB
:101CF800F71243BBC394104003021E3A021E089019
:101D08001485E0C3941E4003021E431242F490144B
:101D180083124278406E901482E0FF1243C12D1264
:101D28004228E0FE602375F01AEF12425C2D124241
:101D380028124318EF12425C2E1241F012428450CE
:101D4800031243EBD205021D8C901481E06035121A
:101D580042F4124443124278402A1243871242281E
:101D6800E0FE602075F01AEF12425C2D1242281234
:101D78004318EF12425C2E1241F0124284500312B3
:101D880043EBD20512420EE0901485F07064901473

:101D980084E004F0A3F0901482E0FD9014851241D1
:101DA800F790FFD9ED122FCF901483E0FF90FFDA60
:101DB800122FCF901482E0FE90FFDB122FCFEF128C
:101DC80043F390FFDDE4122FCF901485E0FF9014C9
:101DD80083E0FD75F01AEE12425C2D124228EFF0F6
:101DE800900004122F5DC394105047124423A3EDB2
:101DF80080189014851241F71243BBC394105032D7
:101E0800124423901483E090148EF0901485E0908F
:101E1800148FF0901481E0901490F01255D780122E
:101E2800901485E0600C8006901485E06004E4F06E
:101E3800C205901482E004F00215D5901483E004E2
:101E4800F00215BB90129FE0F9A3E09014781243BA
:101E58000A901489E0F9A3E090147B12430A9014C5
:101E68008BE0F9A3E0FF90147E12430B901484E0FA
:011E7800FF6A
:101E790022E090148FF0901481E0901490F01255A4
:101E8900D722EFF0D20790148DEDF0A3EEF0A3EF77
:101E9900F0901481E0901490F01255D722E090143C
:0E1EA9008FF0901481E0901490F01255D72223
:1033B300901484E0FF3395E0FE7C007D51122FF1E1
:1033C300901699E0FBA3E0FAA3E02FF9EA3EFA2274
:1033D300A4FF901699E0FBA3E0FAA3E09000032F6B
:1033E300F9EA35F0FA1230CFFFAEF022901481E003
:1033F300FF3395E0FE7D0B122FF190169622901469
:1034030089E075F051A4FF901699E0FBA3E0FAA3BD
:10341300E02FF9EA35F0FA22901481E0FF3395E0CA
:10342300FE22123173900002122F5DFF3395E0FEEE
:103433007D0B122FF1E92FF9EA3EFA2290001512C3
:1034430030CFC39FFFE5F09EFE22AC06AD07E0F947
:10345300FF3395E0FEEF25E0FBEE33FA74862BF5A0
:103463008274163AF583E0FEA3E02DFFEE3CA2E75B
:1034730013FEEF13FF74862BF58274163AF583EE71
:10348300F0A3EFF0E9FF3395E0FEEF25E0FFEE3325
:10349300FE74862FF58274163EF58322E0FF9016A4
:1034A30096E0FBA3E0FAA3E0227401900001122F3F
:1034B300CF901489E0249DF582E43416F58322909D
:1034C30000151230CFC39FE5F09E901489C364802A
:1034D3009480E02235F0FEC3E49FFFE49E227D0A40
:1034E300122FF190000D8FF0EE023173F9E0FD33EE
:1034F30095E0FC8D82F583740B123324EF122FCFEA
:103503008D828C83740B123324022F5DE09014821E
:10351300FFE0FEC3EF6480F8EE648098229000031E
:103523008FF0EE02317390148CE025E0248DF58248
:10353300E43414F58322123173E92405F9E43AFAE9
:103543001230A4FFAEF07D0A123058EE8FF0023134
:1035530054900002022F5D9000058FF0EE0231734C
:103563009000091230CFFD2290001D0230CF900051
:103573001B0230CF7C007D51122FF19016992290BF
:10358300000D02317395F0901483C364809480E03E
:10359300FF2290000F0231739000070230CFF9E051
:1035A300FD3395E08D82F583740B123324EF022FE4
:1035B300CF3CFE90148DF0A3EFF0D390148CE090E9
:1035C300148B9FEE6480F8E06480982290001BE4E3
:1035D300F5F00231739000010230CF900003023006
:1035E300CF1230CFFDACF09000130230CF90148C8B
:1035F300E075F00BA429F9EA35F0FA22C3EE6480F2
:1036030094802290000B8FF0EE0231733395E0FE2D
:10361300748F2FF58274143EF5832295F0901481F4
:10362300C364809480E0FF22F9EEFF3395E08F823C
:10363300F583223395E0FE7C002295F0FEC364807F
:10364300948022901485E0648094802290147CE01E
:10365300FFC364809488227401900001022FCFE09D
:10366300FEA3E02448FFE43E901489F0A3EFF02288
:10367300900001022F5DD3EF9401EE6480948022C9
:103683009000111230CFFBAAF025E0FFEA33FE22AF
:10369300E5F0648094809000132290148AE0FEA3E6
:1036A300E0FF22FF901485E5F0F0A3EFF0229014E1
:1036B30089E0FEA3E0FFD3901488E022C9F0A3EAD7
:1036C300F0A3E9F022E4F0A3F0901489F0A374903E
:1036D300F022123173901482227D51122FF1AC0625
:1036E300AD079016992290147CE004F0223C9014CC
:1036F3008BF0A3CEF090148222123173901485E0E4
:10370300FEA3E0FF227401900019022FCFEF2403E0
:10371300FFE43EFE022FF1C39FE5F09EC364809455
:103723008022FD3395E08D82F58374512290147EBF
:10373300E0FF901676E0FD22901483E0049014825B
:10374300F022901483E004F02290000B0230CF1299
:06375300317390147C228A
:106F5C0090146CE0F9A3E0FAA3E09016991236BFF6
:106F6C0090146FE0F9A3E0FAA3E09016961236BFE6
:016F7C0022F2
:106C6900E4901474F0901474E0FFC39408502FEF6B
:106C7900123405900002E4122FCF901474E0FF251E
:106C8900E02486F582E43416F583E4F0A3F0749DDC
:0E6C99002F1234BAE4F0901474E004F080C7B7
:016CA70022CA
:106E7E00901497EFF09014971236525017EF12337A
:106E8E00B81235547006901497E0FF22901497E0D4
:076E9E0004F080E17F0922EE
:05447600901489EFF035
:10447B00123404123673FF700A74021234AE740FC6
:10448B0002474FEF640260030245B59000151233EB
:10449B00E87C007D0A122FF1EE8FF012358290002E
:1044AB00171233E8122FF1EE8FF01235959000179B
:1044BB001233E89000051234C575F051501BA4FF60
:1044CB009016991234A49000171233E29000051243
:1044DB003442C3E49FFFE480141234089000171297
:1044EB0033E89000051230CFC39FFFE5F09EFCAD83
:1044FB0007C004C0051234019000151233E8900078
:10450B00031234C575F051501AA4FF90169912344A
:10451B000F9000151233E89000031234421234DA74
:10452B00FE800F1234089000151233E8900003122E
:10453B003442D0E02FFFD0E03EFE90148AF0A3EF80
:10454B00F01235FF12369D50061234DAFE8000D37E
:10455B00EF9403EE6480948040081234B4E0700250
:10456B00801C12369D1235FF50061234DAFE800382
:10457B0012369DD3EF9406EE648094804013901412
:10458B0089E0FF1234B8E4F0EF12340512365AC248
:10459B0022901489E0FF1234B8E0D36480948050E9
:1045AB0003024752749D2F0246A112340112367337
:1045BB00640360030246A89000151233E87C007D6B
:1045CB000A122FF190000DEE8FF01231739000173D
:1045DB001233E8122FF190000FEE8FF0123173901F
:1045EB0000031233E81234C275F051500C1233D35E
:1045FB0012343F1234DAFE80061233D312343F12D8
:10460B00367950671234019000051233E890001789
:10461B001234C575F051501AA4FF90169912340F2D
:10462B009000051233E89000171234421234DAFE70
:10463B00800F1234089000051233E89000171234E3
:10464B00421236795025123401740312365C9014E1
:10465B0089E0FF1234B8E0C36480948540030247BD
:10466B0052749D2F1234BAE004F022901489E0FFAB
:10467B001234B8E0C364809481500AEF12340512EF
:10468B00365AC222221234019000017403122FCF2A
:10469B00901489E0249D1234BAE014F0229014890E
:1046AB00E075F0511233D31234C275F0515011A48E
:1046BB00FF9016991233DA12343F1234DAFE800669
:1046CB001233D312343F12367950721234019000E8
:1046DB00051233E89000171234C575F051501AA427
:1046EB00FF90169912340F9000051233E8900017C3
:1046FB001234421234DAFE800F1234089000051285
:10470B0033E8900017123442D3EF9402EE64809496
:10471B0080502A901489E0FF1234B8E0C36480946F
:10472B009E4010EF12340590000174031234B174E3
:10473B0005F0221234011234ACE00480071234016C
:07474B001234ACE4F0C222BD
:014752002244
:0800B70090147FEFF0A3EDF0BF
:1000BF00E4901484F0200503020691901481F090CF
:1000CF001483F0901480E0A31235134003020B3D0C
:1000DF00EE1233B7123554D3648094805003020666
:1000EF008812373B90147F12350F4003020467A329
:1000FF0012341E7C001233F81233C69000031233F1
:10010F00E8C006C00712341B1233BE12356BD0077E
:10011F00D006123445C006C007123563D0E02DD08B
:10012F00E035F09014831234D0FF50321233F412B2
:10013F0033C69000031233E8C006C00712341B12F7
:10014F0033BE12356BD007D006123445C006C00738
:10015F00123563D0E02DFFD0E01234D78032123643
:10016F00361233F81233C69000031233E8C006C0BC
:10017F000712341B1233BE12356BD007D006123460
:10018F0045C006C007123563D0E02DFFD0E035F033
:10019F00FEC006C00790148312341E7C001233F881
:1001AF001233C69000011233E8C006C00712341B89
:1001BF001233BE123571D007D006123445C006C0B7
:1001CF000712359BFDD0E02DD0E035F012358A5067
:1001DF00331233F41233C69000011233E8C006C055
:1001EF000712341B1233BE123571D007D0061234EA
:1001FF0045C006C00712359BFDD0E02DFFD0E012A1
:10020F0034D780331236361233F81233C6900001CA
:10021F001233E8C006C00712341B1233BE123571F9
:10022F00D007D006123445C006C00712359BFDD04B
:10023F00E02DFFD0E035F0FCAD07D0E02DFED0E093
:10024F001236F012341E7C001233F81233C69000AF
:10025F00031233E8C006C00712341B1233BE123527
:10026F006BD007D006123445C006C007123563D0D5
:10027F00E02DD0E035F090148212358D50321233CC
:10028F00F41233C69000031233E8C006C0071234CD
:10029F001B1233BE12356BD007D006123445C00681
:1002AF00C007123563D0E02DFFD0E01234D7803273
:1002BF001236361233F81233C69000031233E8C0E9
:1002CF0006C00712341B1233BE12356BD007D0068F
:1002DF00123445C006C007123563D0E02DFFD0E0C1
:1002EF0035F0FEC006C00790148212341E7C001237
:1002FF0033F81233C69000011233E8C006C007125C
:10030F00341B1233BE123571D007D006123445C0DC
:10031F0006C00712359BFDD0E02DD0E035F09014CC
:10032F008212362350331233F41233C69000011267
:10033F0033E8C006C00712341B1233BE123571D01A
:10034F0007D006123445C006C00712359BFDD0E01A
:10035F002DFFD0E01234D780331236361233F81215
:10036F0033C69000011233E8C006C00712341B12C7
:10037F0033BE123571D007D006123445C006C00700
:10038F0012359BFDD0E02DFFD0E035F0FCAD07D04E
:10039F00E02DFFD0E01235B4500302045E901483B9
:1003AF0012341E7C001233F81233C61235D81236AF
:1003BF00A690148212341E1233FA1233C890000121
:1003CF001233E8C007C00690148312341E1233FA9A
:1003DF001233C8900001D0E0D0F01236FCC007C035
:1003EF000690148212341E1233FA1233C690000193
:1003FF00D0E0D0F012317390148312341E1233FAFE
:10040F001233C61235DE1236A690148212341E1223
:10041F0033FA1233C89000031233E8C007C00690B6
:10042F00148312341E1233FA1233C8900003D0E033
:10043F00D0F01236FCC007C00690148212341E1280
:10044F0033FA1233C6900003D0E0D0F0123173901C
:10045F001482E004F00200F39014811233B690007E
:10046F00091233E8C006C00712356BFDD0E02DFF2F
:10047F00D0E035F0FEC006C0079014831233F2129D
:10048F0033C61235DEFDC3D0E09DD0E012361E50CC
:10049F003D3395E0FE1233BE9000091233E8C006DB
:1004AF00C00712356BFDD0E02DFFD0E035F0FEC058
:1004BF0006C0079014831233F21233C61235DEFDD5
:1004CF00C3D0E09DFFD0E095F01234D980341233C1
:1004DF00B89000091233E8C006C00712356BFDD083
:1004EF00E02DFFD0E035F0FEC006C0079014831258
:1004FF0033F21233C61235DEFDC3D0E09DFFD0E0DC
:10050F0095F0FEC006C0079014811233B690000715
:10051F001233E8C006C007123571FDD0E02DFFD0B1
:10052F00E035F0FEC006C0079014831233F2123389
:10053F00C61235D8FDC3D0E09DD0E012361E503D17
:10054F003395E0FE1233BE9000071233E8C006C0A9
:10055F0007123571FDD0E02DFFD0E035F0FEC0065B
:10056F00C0079014831233F21233C61235D8FDC36D
:10057F00D0E09DFFD0E095F01234D980341233B81B
:10058F009000071233E8C006C007123571FDD0E0A6
:10059F002DFFD0E035F0FEC006C007901483123354
:1005AF00F21233C61235D8FDC3D0E09DFFD0E095CF
:1005BF00F0FCAD07D0E02DFED0E03C901487F0A307
:1005CF00CEF09014811233B6123554D364809481D7
:1005DF0040529000091233E81235FF50061234DAF8
:1005EF00FE80069000091233E8C006C0079000078E
:1005FF001233E81235FF50081234DAFCAD078008C9
:10060F0012359BAEF0AC06FDD0E02DFDD0E03CFCEA
:10061F0090147F12341E12371090148112344D1221
:10062F003662800912341B12348D1236C81236B15D
:10063F009014871235C5403290169CE0FF126E7EE3
:10064F001234A19014831234EFB409037F022212E3
:10065F0034A1F9901481E012362D1235070490164B
:10066F009CF09014847401F0800C90148112349FCC
:10067F009014831235A1123745901481E004F002D3
:10068F0000D27E007F087D007B017A14798F1233B0
:10069F0041E4901481F090147FE0FF9014811235A3
:1006AF00144003020B3DE4901483F0901480E01487
:1006BF00FF901483123514500DEEFF12360FE060C9
:1006CF000512374580E512373B90148012350F40E5
:1006DF0003020927A31233B6123554700612374599
:1006EF0002091E9014821233B61235547003020998
:1006FF001E90148212341E123613E0600302091E7C
:10070F009014831233B690001D1233E8C006C00751
:10071F001233EF1233C61235DED007D0061234452E
:10072F00C006C00790148312341E1233BE123563F5
:10073F00C3D0E09DFFD0E012363D50051234DA8071
:10074F003890001D1233E8C006C00712341B7C001E
:10075F001233F81233C61235DED007D006123445E5
:10076F00C006C00790148312341E1233BE123563B5
:10077F00C3D0E09DFFD0E095F0FEC006C0079014F7
:10078F00831233B690001B1233E8C006C007123332
:10079F00EF1233C61235D8D007D006123445C00633
:1007AF00C00790148312341E1233BE12359BFDC343
:1007BF00D0E09DFFD0E012363D50051234DA80397B
:1007CF0090001B1233E8C006C00712341B7C0012C6
:1007DF0033F81233C61235D8D007D006123445C0BD
:1007EF0006C00790148312341E1233BE12359BFDC0
:1007FF00C3D0E09DFFD0E095F0FCAD07D0E02DFE1B
:10080F00D0E01236F01233B690001D1233E8C00656
:10081F00C0071233EF1233C61235DED007D00612DF
:10082F003445C006C00790148212341E1233BE1214
:10083F003563C3D0E09DFFD0E012363D5005123432
:10084F00DA803890001D1233E8C006C00712341B3F
:10085F007C001233F81233C61235DED007D00612E1
:10086F003445C006C00790148212341E1233BE12D4
:10087F003563C3D0E09DFFD0E095F0FEC006C00702
:10088F009014821233B690001B1233E8C006C007D3
:10089F001233EF1233C61235D8D007D006123445B3
:1008AF00C006C00790148212341E1233BE12359B3D
:1008BF00FDC3D0E09DFFD0E012363D50051234DA73
:1008CF00803990001B1233E8C006C00712341B7C1E
:1008DF00001233F81233C61235D8D007D0061234AF
:1008EF0045C006C00790148212341E1233BE123553
:1008FF009BFDC3D0E09DFFD0E095F0FCAD07D0E0AD
:10090F002DFFD0E01235B44006901482E0A3F09092
:10091F001482E004F00206D89014831233B69000CC
:10092F00091233E8C006C00712356BFDD0E02DFF6A
:10093F00D0E035F0FEC006C0071233EF1233C612F7
:10094F0035DEFDC3D0E09DD0E0123588503A3395A7
:10095F00E0FE1233BE9000091233E8C006C0071242
:10096F00356BFDD0E02DFFD0E035F0FEC006C0079F
:10097F001233EF1233C61235DEFDC3D0E09DFFD028
:10098F00E095F01234D980311233B8900009123348
:10099F00E8C006C00712356BFDD0E02DFFD0E03563
:1009AF00F0FEC006C0071233EF1233C61235DEFD5C
:1009BF00C3D0E09DFFD0E095F0FEC006C0079014B5
:1009CF00831233B69000071233E8C006C007123502
:1009DF0071FDD0E02DFFD0E035F0FEC006C007124C
:1009EF0033EF1233C61235D8FDC3D0E09DD0E012DD
:1009FF003588503A3395E0FE1233BE90000712331C
:100A0F00E8C006C007123571FDD0E02DFFD0E035EC
:100A1F00F0FEC006C0071233EF1233C61235D8FDF1
:100A2F00C3D0E09DFFD0E095F01234D9803112335E
:100A3F00B89000071233E8C006C007123571FDD019
:100A4F00E02DFFD0E035F0FEC006C0071233EF12E5
:100A5F0033C61235D8FDC3D0E09DFFD0E095F0FC32
:100A6F00AD07D0E02DFED0E03C901487F0A3CEF080
:100A7F009014831233B6123554D36480948140524C
:100A8F009000091233E81235FF50061234DAFE8057
:100A9F00069000091233E8C006C007900007123312
:100AAF00E81235FF50081234DAFCAD078008123512
:100ABF009BAEF0AC06FDD0E02DFDD0E03CFC9014D9
:100ACF007F12341E12371090148312344D12366277
:100ADF00800C90148312341E12348D1236C81236C5
:100AEF00B19FEE6480F8901487E064809840239063
:100AFF00169CE0FF126E7E1234A19014811234EF17
:100B0F00FE0490169CF0EEB409037F022290148429
:100B1F00801090148312349F9014811235A1EF121C
:100B2F00360F7401F0901481E004F00206A59014C2
:030B3F0084E0FF50
:010B42002290
:0B69E300901489EEF0A3EFF0A3EBF09E
:1069EE00AE04AF05AB07AA06EA3395E0F9F8E0244A
:1069FE00FFFFE434FFFEE4FCFD1231A0C004C0052D
:106A0E00C006C007901489E0FEA3E0FFEE3395E0C8
:106A1E00FDFCE47B0AFAF9F81231A0D003D002D0C3
:106A2E0001D000EF2BFFEE3AFEED39FDEC38FCC045
:0F6A3E000790148BE0FBE4FAF9F8D00712322B23
:016A4D002226
:0B626C00901489EFF0A3EDF0A3EBF01D
:10627700E4A3F090148AE0FF90148CE0C39F50468B
:1062870090148BE0700E9014891234041235F0903C
:10629700001B801F90148BE06401901489700B120F
:1062A70034041235F090001D80091234041235F0C1
:1062B70090001F1230CFFF1235291236AA90148C86
:1062C700E004F002627AE490148CF090148AE014EF
:1062D700FF90148CE0FEC39F506DEE04FE90148A6D
:1062E700E0FDEEC39D5057EE12352DE0FCA3E0FD17
:1062F700123529E0FAA3E0D39DEC6480F8EA6480C4
:1063070098403790148CE0FD12352DE0FBA3E09008
:106317001497CBF0A3EBF0EE12352DE0FAA3E0FBD8
:10632700ED12352DEAF0A3EBF0901497E0FCA3E013
:10633700FDEE12352DECF0A3EDF00E0262E49014A1
:106347008CE004F00262D2EFC31312352DE0FEA3F6
:02635700E0FF65
:016359002221
:081EB70090147FEFF0A3EDF0A1
:101EBF00D222E4901482F090147FE0FF90148212EB
:101ECF00351440030224991234A112362B12350710
:101EDF00901484F0901481E0600F1233B3123554D4
:101EEF00C3648094855017800D1233B3123554C3D9
:101EFF006480948350089000027401122F8A123369
:101F0F00B312355414901483F0901483E0D364808B
:101F1F0094804039A31233B690148312341E1234B6
:101F2F00339000101233E890001B1234E990001226
:101F3F001233E890001D1235239000141233E890ED
:101F4F00001F12355D901483E014F080BC90148252
:101F5F0012341E7C001233F81233C6900001123374
:101F6F00E8C007C00690148412341E1233BE9000CE
:101F7F001BD0E0D0F01236D51233F21233C69000D8
:101F8F00031233E8C007C00690148412341E1233B4
:101F9F00BE90001DD0E0D0F01236D51233F21233BE
:101FAF00C69000051233E8C007C00690148412349F
:101FBF001E1236DC1234A42DF9EA3CFA90001FD021
:101FCF00E0D0F0123173123554D36480948140798C
:101FDF009016991234A42DF9EA3CFA900026123388
:101FEF00E890001B123442C006C007123563D0E0E0
:101FFF002DFFD0E035F0FE7C007D02123058C00777
:10200F00C00690148412341E1235771233C8900014
:10201F0007D0E0D0F01231739000281233E890000F
:10202F001D123442C006C007123563D0E02DFFD019
:10203F00E035F0FE7D02123058C007C0061233B3F0
:10204F00900009D0E0D0F0800F1233B39000071248
:10205F0035D2900009E4F5F01231731233B3123513
:10206F0054C364809482500302241B123673704F42
:10207F0090148412341E12357B1233C812342890F8
:10208F0000101233E8C007C00690148412341E12D9
:10209F0035791233C8900003D0E0D0F01234259078
:1020AF0000121233E8C007C00690148412341E12B7
:1020BF0033BE900005D0E0D0F01231730223F190BF
:1020CF001484E0FFE4FB7D0312626CC007C00612AC
:1020DF0033B3900003D0E0D0F01231737B0112279D
:1020EF00A6C007C0061233B3900005D0E0D0F0129F
:1020FF0031737B021227A6C007C0061233B39000BC
:10210F000BD0E0D0F01231739000111233E8C006FB
